:0408000003EF18F0FA
:08080800F76A180FF66E080EE6
:10081000F7220900F5501200000000000000005F00
:1008200000000007000700147F147F14242A7F2A89
:10083000122313086462364956205000080703004B
:10084000001C2241000041221C002A1C7F1C2A0897
:10085000083E0808008070300008080808080000FA
:1008600060600020100804023E5149453E00427F6E
:10087000400072494949462141494D331814127FBD
:100880001027454545393C4A49493141211109075D
:100890003649494936464949291E000014000000DE
:1008A00040340000000814224114141414140041B0
:1008B00022140802015909063E415D594E7C12116D
:1008C000127C7F494949363E414141227F414141A5
:1008D0003E7F494949417F090909013E4141517320
:1008E0007F0808087F00417F41002040413F017F91
:1008F000081422417F404040407F021C027F7F0459
:1009000008107F3E4141413E7F090909063E4151A1
:10091000215E7F0919294600F76A280FF66E090E35
:10092000F7220900F5501200264949493203017F98
:1009300001033F4040403F1F2040201F3F403840C0
:100940003F631408146303047804036159494D4359
:10095000007F4141410204081020004141417F04D1
:1009600002010204404040404000030708002054B8
:100970005478407F28444438384444442838444418
:10098000287F385454541800087E090218A4A49CE7
:10099000787F0804047800447D40002040403D00FA
:1009A0007F1028440000417F40007C047804787C5C
:1009B000080404783844444438FC182424181824C3
:1009C0002418FC7C08040408485454542404043FAC
:1009D00044243C4040207C1C2040201C3C403040B3
:1009E0003C44281028444C9090907C4464544C44DF
:1009F0000008364100000077000000413608000280
:100A000001020402F76A140FF66E0A0EF7220900BB
:100A1000F55012007363726F6C6C0000F76A2C0F54
:100A2000F66E0A0EF7220900F550120048656C6C4C
:100A30006F2C20776F726C642100020EEA6E2B0E11
:100A4000E96EEF500EE00F0E016E006A002EFED729
:100A5000012EFBD78F0E006E002EFED70000EF2E6A
:100A6000F2D71200C69E9E962FC2C9FF020EC6BEC6
:100A700005D09EA6FED7000EC5BC010E016E120069
:100A800002012E6BC580C5B0FED704C02FF2000155
:100A9000E9DF2EC22FF2E6DF2DC22FF2E3DFC5849D
:100AA000C5B4FED7120023C205F024C204F00A0E1A
:100AB00002012B6F0001C1DFAE0E02012D6F00019C
:100AC000DFDFD50E02012D6F0001DADF800E02019B
:100AD0002D6F0001D5DFA80E02012D6F0001D0DFC0
:100AE0001F0E02012D6F0001CBDFD30E02012D6F0F
:100AF0000001C6DF02012D6B0001C2DF400E0201C2
:100B00002D6F0001BDDF8D0E02012D6F0001B8DFDA
:100B10000201232D06D0100E2D6F0001B1DF05D08C
:100B20000201140E2D6F0001ABDF200E02012D6FAC
:100B30000001A6DF02012D6B0001A2DFA10E020160
:100B40002D6F00019DDFC80E02012D6F000198DF9F
:100B5000DA0E02012D6F000193DF020E02012D6FEC
:100B600000018EDF810E02012D6F000189DF8F0EE3
:100B700002012D6F000184DFD90E02012D6F0001EB
:100B80007FDF0201232D06D0220E2D6F000178DFBA
:100B900005D00201F10E2D6F000172DFDB0E0201A4
:100BA0002D6F00016DDF400E02012D6F000168DF27
:100BB000A40E02012D6F000163DFA60E02012D6F4E
:100BC00000015EDF2E0E02012D6F000159DFAF0E16
:100BD00002012D6F000154DF066A076A010E086EDC
:100BE000EDEF18F0210E02012D6F000149DF020127
:100BF0002D6B000145DF7F0E02012D6F000140DFEC
:100C0000220E02012D6F00013BDF02012D6B00015E
:100C100037DF030E02012D6F000132DF02012B6B63
:100C20002A6B2B5101082EE3C580C5B0FED704C046
:100C30002FF2000117DF400E02012F6F000112DFBB
:100C400002012C6B2C510F0812E30A0E2A25E96EC3
:100C5000000E2B21EA6EEFCF2DF22DC22FF20001F4
:100C600001DF02012A2BD8B42B2B2C2BEBD72A51D6
:100C7000D8B42B072A07C584C5B4FED72A2BD8B40D
:100C80002B2BCFD70001120002012B6B2A6B2B51AB
:100C900001080BE30A0E2A25E96E000E2B21EA6EED
:100CA000EF6A2A2BD8B42B2BF2D7000112000201D5
:100CB00088517F0803E389511F0801E26ED08A53EF
:100CC00036E08931006E003200321F0E00160050EF
:100CD0008C6B8B6F8B35026E8C35036E0236033650
:100CE0000236033602360336023603360236033640
:100CF00002360336800E0216025088258B6F000ED6
:100D000003208C6F0A0E8B25E96E000E8C21EA6E93
:100D10008951070B016E010E006E015204E0D8905C
:100D20000036012EFCD70050EF10EF6E36D089311F
:100D3000006E003200321F0E001600508C6B8B6F5D
:100D40008B35026E8C35036E02360336023603365F
:100D500002360336023603360236033602360336CF
:100D6000800E0216025088258B6F000E03208C6FB8
:100D70000A0E8B25E96E000E8C21EA6E8951070B55
:100D8000016E010E006E015204E0D8900036012E73
:100D9000FCD70050FF0AEF14EF6E000112000201B1
:100DA0007A917351775D886F74517859896F036EAA
:100DB000885189AF08D0000ED8808855006E000E8B
:100DC0008955036E0050886F03C089F27151755DBB
:100DD0008A6F725176598B6F036E8A518BAF08D030
:100DE000000ED8808A55006E000E8B55036E0050A1
:100DF000016E03AE03D089AF0AD002D089BF08D0FC
:100E00000350895D05E303E18851015C01E27A81C9
:100E10007AA118D072C281F271C280F274C272F2E9
:100E200073C271F281C274F280C273F276C283F22D
:100E300075C282F278C276F277C275F283C278F216
:100E400082C277F276AF03D072AF0AD002D072BFFF
:100E50001FD07651725D1CE303E17151755D18E29C
:100E600072C285F271C284F276C272F275C271F2F8
:100E700085C276F284C275F274C287F273C286F2BA
:100E800078C274F277C273F287C278F286C277F2C0
:100E90007151755D006E7251765900C07CF27351CC
:100EA000775D886F74517859896F036E885189AF67
:100EB00008D0000ED8808855006E000E8955036E4C
:100EC00000507D6FD8907C31036A7E6F03C07FF243
:100ED00074AF03D078AF0AD002D078BF0AD0745173
:100EE000785D07E303E17751735D03E2010E7B6FE9
:100EF00001D07B6972AF03D076AF0AD002D076BF43
:100F000047D07251765D44E303E17151755D40E372
:100F10007AA115D079530AE073C288F271C289F2BE
:100F2000010E8A6F0001C3DE08D0020173C288F28D
:100F300071C289F28A6B0001BADE14D002017953C2
:100F40000AE071C288F273C289F2010E8A6F000151
:100F5000AEDE08D0020171C288F273C289F28A6BD8
:100F60000001A5DE02017D517E5F000E7F5B7FAF39
:100F70000BD0036A7B51E8BE03067327035074232A
:100F80007C517E27000E7F23712BD8B4722BB2D7F1
:100F9000000112000201246B236B24BF05D02453EF
:100FA0001EE123517F081BE3726B716B746B736BD3
:100FB00024C276F223C275F2786B1F0E776F010E92
:100FC000796F0001ECDE0EDE010E02012B6F0001D5
:100FD00034DD040E02012327000E2423DED7246B08
:100FE000236B24BF05D024531EE123511F081BE3AC
:100FF000726B716B746B736B766B7F0E756F24C243
:1010000078F223C277F2010E796F0001C8DEEADDC3
:10101000010E02012B6F000110DD040E02012327D7
:10102000000E2423DED7FA0E2B6F000106DD2CDE26
:101030000201246B236B24BF05D024531EE12351EE
:101040007F081BE3726B716B746B1F0E736F24C28E
:1010500076F223C275F2786B776B010E796F00011F
:101060009EDEC0DD010E02012B6F0001E6DC040EE6
:1010700002012327000E2423DED7246B1F0E236FCB
:1010800024BF1CD0726B716B746B1F0E736F766B09
:101090007F0E756F24C278F223C277F2010E796F4A
:1010A00000017DDE9FDD010E02012B6F0001C5DC1A
:1010B000040E0201235F000E245BE2D7FA0E2B6FB1
:1010C0000001BBDCE1DD0201246B7F0E236F24BF36
:1010D0001CD0726B7F0E716F746B1F0E736F24C206
:1010E00076F223C275F2786B776B010E796F00018F
:1010F00056DE78DD010E02012B6F00019EDC040E2E
:101100000201235F000E245BE2D7246B1F0E236FC6
:1011100024BF1CD0726B7F0E716F746B1F0E736FC8
:10112000766B756B24C278F223C277F2010E796F69
:10113000000135DE57DD010E02012B6F00017DDC61
:10114000040E0201235F000E245BE2D7FA0E2B6F20
:10115000000173DC99DD0201246B236B24BF05D0F1
:1011600024531EE123511F081BE3726B7F0E716F26
:10117000746B736B766B756B24C278F223C277F253
:10118000010E796F00010BDE2DDD010E02012B6FC8
:10119000000153DC040E02012327000E2423DED7B6
:1011A000246B236B24BF05D024531FE123517F08F8
:1011B0001CE3726B7F0E716F746B736B24C276F2DB
:1011C00023C275F2786B1F0E776F010E796F0001E5
:1011D000E6DD08DD010E02012B6F00012EDC040E9E
:1011E00002012327000E2423DDD7FA0E2B6F000106
:1011F00024DC18EF19F002016E516C25FF0F706F9F
:10120000726B6CC271F2746B6DC273F2766B756F38
:10121000786B6DC277F26FC279F20001C0DD120007
:1012200002014E514D25FF0F506F726B4CC271F28F
:10123000746B4DC273F2766B4CC275F2786B776F3C
:101240004FC279F20001ABDD120026C26CF227C258
:101250006DF228C26EF2010E02016F6F0001CBDF4A
:10126000020129512725FF0F2A6F26C26CF26D6FEC
:1012700028C26EF2010E6F6F0001BDDF26C24CF274
:1012800027C24DF229C24EF2010E02014F6F00013A
:10129000C7DF020128512625FF0F2A6F4C6F27C296
:1012A0004DF229C24EF2010E4F6F0001B9DF71EF0E
:1012B00009F00201236B23510F081EE3D890233558
:1012C000FF0A810F246FD8902335FF0A210F256F65
:1012D00023C226F223C227F224C228F2296F00017A
:1012E000B4D780DC010E02012B6F00011DEC05F06C
:1012F000020E02012327DFD700012AEF19F0036A4B
:1013000002013AC23FF203C040F23C513A2540BFCD
:1013100004D0405311E13F5D0FE23FC24CF23BC2AB
:101320004DF23DC24EF23EC24FF2000179DF0201A2
:101330003F2BD8B4402BE9D70001120002012381D2
:10134000246B24510F0829E3D8902435FF0A810F1C
:10135000256FD8902435FF0A210F266F000E23B188
:10136000010E276F24C23AF224C23BF225C23CF29E
:1013700026C23DF23E6F0001C2DF34DC010E0201E5
:101380002B6F00011DEC05F0020123A102D0239177
:1013900001D02381030E2427D4D700013CEF19F09C
:1013A00002016D516F19800B716F6DAF05D06C1F0D
:1013B0006D1F6C2BD8B46D2B6FAF05D06E1F6F1FD8
:1013C0006E2BD8B46F2B6C516E03F3CF01F0F4CFBA
:1013D00000F06F03F35000266D516E03F3500020B0
:1013E000026E71AF05D0011E021E012AD8B4022A76
:1013F00000011200010ED880020128552A6F000E4C
:1014000029552B6F2D6B010E2C6F6D69FE0E6C6FC5
:1014100029C26FF228C26EF20001C2DF02C02FF2B1
:1014200001C02EF20201316B306B29C233F228C2A7
:1014300032F228512625346F29512721356F24C2D5
:1014400088F234C289F2010E8A6F000130DC020199
:101450002851265D346F29512759356F24C288F2EF
:1014600034C289F2010E8A6F000121DC0201285189
:101470002425346F29512521356F34C288F226C2C4
:1014800089F2010E8A6F000112DC02012851245DED
:10149000346F29512559356F34C288F226C289F23A
:1014A000010E8A6F000103DC020131AF03D033AFBC
:1014B0000CD002D033BFD3D03151335DD8A0CFD0C0
:1014C00004E13251305DD8B0CAD02BBF0CD03251BC
:1014D000D8B433073207020E2E27000E2F232E51C9
:1014E0002A272F512B23302BD8B4312B020E2C2737
:1014F000000E2D232C512A272D512B23305124252A
:10150000346F31512521356F32512625366F3351D5
:101510002721376F34C288F236C289F2010E8A6FF2
:10152000000157EC06F002013051245D346F315157
:101530002559356F32512625366F33512721376FA4
:1015400034C288F236C289F2010E8A6F000157EC6C
:1015500006F0020130512425346F31512521356FB9
:101560003251265D366F33512759376F34C288F2B6
:1015700036C289F2010E8A6F000157EC06F00201B3
:101580003051245D346F31512559356F3251265D0C
:10159000366F33512759376F34C288F236C289F219
:1015A000010E8A6F000157EC06F00201325124252A
:1015B000346F33512521356F30512625366F315127
:1015C0002721376F34C288F236C289F2010E8A6F42
:1015D000000157EC06F002013251245D346F3351A3
:1015E0002559356F30512625366F31512721376FF8
:1015F00034C288F236C289F2010E8A6F000157ECBC
:1016000006F0020132512425346F33512521356F04
:101610003051265D366F31512759376F34C288F209
:1016200036C289F2010E8A6F000157EC06F0020102
:101630003251245D346F33512559356F3051265D59
:10164000366F31512759376F34C288F236C289F26A
:10165000010E8A6F000157EC06F026D70201000147
:1016600042EF0BF00201236B23511F0817E3256B98
:10167000400E246F276B100E266F296B23C228F2B1
:101680000001B8D6F2EC05F0010E02012B6F00014B
:101690001DEC05F0020E02012327E6D700014EEFF4
:1016A00019F0010ED880020136553C6F000E3755F7
:1016B0003D6F3F6B010E3E6F6D69FE0E6C6F37C262
:1016C0006FF236C26EF200016BDE02C041F201C061
:1016D00040F20201436B426B37C245F236C244F21C
:1016E00043AF03D045AF0CD002D045BFDBD0435150
:1016F000455DD8A0D7D004E14451425DD8B0D2D0E6
:101700003DBF0CD04451D8B445074407020E4027D2
:10171000000E412340513C2741513D23422BD8B478
:10172000432B020E3E27000E3F233E513C273F51E4
:101730003D2338A15AD042513225466F43513321BF
:10174000476F4451345D486F45513559496F6D6B52
:10175000020E6C6F45C26FF244C26EF2000120DED1
:1017600002C04BF201C04AF2010E02014A27000EEC
:101770004B2339514A273A514B2346C24CF248C2B7
:101780004DF24AC24EF23BC24FF2000149DD020166
:1017900044513225466F45513321476F4251345DE4
:1017A000486F43513559496F6D6B020E6C6F43C2E0
:1017B0006FF242C26EF20001F3DD02C04BF201C0D3
:1017C0004AF2010E02014A27000E4B2339514A27E3
:1017D0003A514B2346C24CF248C24DF24AC24EF235
:1017E0003BC24FF200011CDD020138A35AD0425126
:1017F000325D466F43513359476F4451345D486FF2
:1018000045513559496F6D6B020E6C6F45C26FF2D1
:1018100044C26EF20001C4DD02C04BF201C04AF2C4
:10182000010E02014A27000E4B2339514A273A5133
:101830004B2346C24CF248C24DF24AC24EF23BC262
:101840004FF20001EDDC02014451325D466F45511B
:101850003359476F4251345D486F43513559496F91
:101860006D6B020E6C6F43C26FF242C26EF20001EA
:1018700097DD02C04BF201C04AF2010E02014A2775
:10188000000E4B2339514A273A514B2346C24CF2A2
:1018900048C24DF24AC24EF23BC24FF20001C0DCD8
:1018A00002011ED70001120002012751255D2A6F97
:1018B000285126592B6F6D6B020E6C6F28C26FF288
:1018C00027C26EF200016CDD02C02DF201C02CF2C5
:1018D000010E02012C27000E2D2323C24CF22AC236
:1018E0004DF22CC24EF229C24FF2000199DC24C203
:1018F00033F223C232F226C235F225C234F228C2B4
:1019000037F227C236F2030E0201386F3A6B396B99
:1019100029C23BF20001C5DE6DEF19F0010ED8803F
:1019200002013255356F000E3355366F386B010E9C
:10193000376F6D69FE0E6C6F33C26FF232C26EF29A
:1019400000012EDD02C03AF201C039F202013C6B07
:101950003B6B33C23EF232C23DF23CAF03D03EAFEE
:101960000CD002D03EBFDBD03C513E5DD8A0D7D0DA
:1019700004E13D513B5DD8B0D2D036BF0CD03D51D3
:10198000D8B43E073D07020E3927000E3A233951DD
:1019900035273A5136233B2BD8B43C2B020E372740
:1019A000000E3823375135273851362334A52CD033
:1019B0003B512E253F6F3C512F21406F3D5130252B
:1019C000416F3E513121426F3FC288F241C289F2DC
:1019D000010E8A6F000157EC06F002013D512E25E1
:1019E0003F6F3E512F21406F3B513025416F3C519D
:1019F0003121426F3FC288F241C289F2010E8A6FE3
:101A0000000157EC06F0020134A32CD03B512E25E7
:101A10003F6F3C512F21406F3D51305D416F3E5132
:101A20003159426F3FC288F241C289F2010E8A6F7A
:101A3000000157EC06F002013D512E253F6F3E514B
:101A40002F21406F3B51305D416F3C513159426F06
:101A50003FC288F241C289F2010E8A6F000157EC41
:101A600006F0020134A72CD03D512E5D3F6F3E5150
:101A70002F59406F3B513025416F3C513121426F0E
:101A80003FC288F241C289F2010E8A6F000157EC11
:101A900006F002013B512E5D3F6F3C512F59406FC4
:101AA0003D513025416F3E513121426F3FC288F296
:101AB00041C289F2010E8A6F000157EC06F0020163
:101AC00034A12CD03D512E5D3F6F3E512F59406FB8
:101AD0003B51305D416F3C513159426F3FC288F2FA
:101AE00041C289F2010E8A6F000157EC06F0020133
:101AF0003B512E5D3F6F3C512F59406F3D51305D42
:101B0000416F3E513159426F3FC288F241C289F262
:101B1000010E8A6F000157EC06F002011ED700018A
:101B2000120002012B5127252C6FD8902B35295DEF
:101B30002D6F2CC26CF228C26DF26E6F010E6F6FAA
:101B40000001FBEC08F002012B5127252C6F2A51D4
:101B50002825FF0F2D6FD8902B35295D2E6F2CC2B5
:101B60006CF22DC26DF26E6F010E6F6F0001FBEC17
:101B700008F002012B5128252C6FD8902B352A5DB7
:101B80002D6F27C24CF22CC24DF24E6F010E4F6FDB
:101B9000000110EC09F0020129512725FF0F2C6FDD
:101BA0002B5128252D6FD8902B352A5D2E6F2CC2F6
:101BB0004CF22DC24DF24E6F010E4F6F000110EC32
:101BC00009F002012B5127252C6F2B5128252D6F51
:101BD0002F6B2CC22EF2316B306F336B2BC232F273
:101BE000010E346F00019ADE020129512725D880A9
:101BF0002B55FF0F2C6F2B5128252D6F2F6B2CC2CF
:101C00002EF2316B306F336B2BC232F2020E346F17
:101C1000000184DE020129512725D8802B55FF0FB2
:101C20002C6F2A512825D8802B55FF0F2D6F2F6B35
:101C30002CC22EF2316B306F336B2BC232F2040E9A
:101C4000346F00016BDE02012B5127252C6F2A51C6
:101C50002825D8802B55FF0F2D6F2F6B2CC22EF20D
:101C6000316B306F336B2BC232F2080E346F0001D0
:101C700055DE5AEF0EF00201236B23510D0826E3C7
:101C8000D8902335FF0A810F246FD8902335FF0A9F
:101C9000210F256FD8902331FF0A090F266F23C229
:101CA00027F223C228F224C229F225C22AF22B6F7E
:101CB000000137D7F2EC05F0010E02012B6F000195
:101CC0001DEC05F0020E02012327D7D700017FEF9C
:101CD00019F002012D5129252F6FD8902D352B5D3C
:101CE000306F2FC23AF22AC23BF23C6F2CC23DF257
:101CF0002EC23EF200017FEC09F002012B51292592
:101D0000D8802D55FF0F2F6F2D512A25306FD89079
:101D10002D352C5DFF0F316F336B2FC232F2356BD7
:101D200030C234F2376B2DC236F2010E386F3A6B87
:101D300031C239F22EC23BF20001B3DC02012D5157
:101D400029252F6F2D512A25306FD8902D352C5DE8
:101D5000FF0F316F336B2FC232F2356B30C234F26A
:101D6000376B2DC236F2020E386F3A6B31C239F240
:101D70002EC23BF2000195DCE4EF0EF0020123815C
:101D8000246B24510D0833E3D8902435FF0A810FCA
:101D9000256FD8902435FF0A210F266FD890243163
:101DA000FF0A090F276F000E23B1010E286F24C20E
:101DB00029F224C22AF225C22BF226C22CF227C213
:101DC0002DF22E6F000185D7020123A102D02391AD
:101DD00001D023810001F2EC05F0010E02012B6F0E
:101DE00000011DEC05F0020E02012427CAD70001F4
:101DF00091EF19F00201726B29C271F2746B2AC261
:101E000073F2766B2BC275F2786B2CC277F2010EEF
:101E1000796F0001CFEC06F00201726B2BC271F2F8
:101E2000746B2CC273F2766B2DC275F2786B2EC276
:101E300077F2010E796F0001CFEC06F00201726BB0
:101E40002DC271F2746B2EC273F2766B29C275F2D9
:101E5000786B2AC277F2010E796F0001CFEC06F0A1
:101E600056EF0FF00201236B23510F082BE3100EE6
:101E7000D8802355246F400ED8802355256F100E2F
:101E80002325266F400E2325276F100E2325286F4C
:101E9000400E296F24C22AF225C22BF226C22CF250
:101EA00027C22DF228C22EF20001A4D7F2EC05F0D1
:101EB000010E02012B6F00011DEC05F0050E020161
:101EC0002327D2D70001A3EF19F0D8B204D0020E15
:101ED000EA6E760EE96E020171517519800B7B6F07
:101EE00071AF0BD06E1F6F1F701F711F6E2BD8B498
:101EF0006F2BD8B4702BD8B4712B75AF0BD0721F69
:101F0000731F741F751F722BD8B4732BD8B4742B26
:101F1000D8B4752B006A016A026A036A766B776B24
:101F2000786B796B75517411731172112CE0200E5E
:101F30007A6FD8906E376F3770377137763777375B
:101F4000783779377551795D08E17451785D05E12D
:101F50007351775D02E17251765D0FE37251765FE6
:101F60007351D8A0733D775F7451D8A0743D785FEA
:101F70007551D8A0753D795FD8800036013602369C
:101F800003367A2FD6D77BAF0BD0001E011E021E60
:101F9000031E002AD8B4012AD8B4022AD8B4032ACE
:101FA00076C2EFFF77C2ECFF78C2ECFF79C2ECFF9C
:101FB00000011200020138AF03D034AF0AD002D0C2
:101FC00034BF1FD03851345D1CE303E13351375D1A
:101FD00018E234C247F233C246F238C234F237C292
:101FE00033F247C238F246C237F232C249F231C246
:101FF00048F236C232F235C231F249C236F248C234
:1020000035F23CAF03D038AF0AD002D038BF1FD072
:102010003C51385D1CE303E137513B5D18E23CC2A3
:102020004BF23BC24AF238C23CF237C23BF24BC2DF
:1020300038F24AC237F23AC24DF239C24CF236C2D5
:102040003AF235C239F24DC236F24CC235F238AFEF
:1020500003D034AF0AD002D034BF1FD03851345D22
:102060001CE303E13351375D18E234C24FF233C24F
:102070004EF238C234F237C233F24FC238F24EC297
:1020800037F232C251F231C250F236C232F235C2A8
:1020900031F251C236F250C235F23B51335DD8A411
:1020A0006DD03C51345DD8A469D032C241F231C206
:1020B00040F241C23FF240C23EF236AF03D03FAFE2
:1020C0000AD002D03FBF0CD036513F5D09E303E197
:1020D0003E51355D05E236C23FF235C23EF212D0C6
:1020E00041AF03D036AF0AD002D036BF0BD041513A
:1020F000365D08E303E13551405D04E236C241F24A
:1021000035C240F23AAF03D03FAF0AD002D03FBF52
:102110000CD03A513F5D09E303E13E51395D05E2E0
:102120003AC23FF239C23EF212D041AF03D03AAFC9
:102130000AD002D03ABF0BD041513A5D08E303E127
:102140003951405D04E23AC241F239C240F23E5197
:10215000405D6A6F3F5141596B6F010E6A27000E57
:102160006B233EC26CF233C26DF26AC26EF23DC2A4
:102170006FF20001FBEC08F072D202013151355DC3
:10218000526F32513659536F3351375D546F34515A
:102190003859556F3151395D566F32513A59576F31
:1021A00033513B5D586F34513C59596F3551395D4E
:1021B0005A6F36513A595B6F37513B5D5C6F3851FE
:1021C0003C595D6F616B606B5F6B5E6B656B646BE5
:1021D000636B626B3B51375D08E13C51385D05E153
:1021E00038C245F237C244F206D0010E375D446F63
:1021F000000E3859456F34C243F233C242F243AF46
:1022000003D045AF0CD002D045BFE9D04351455D66
:10221000D8A0E5D004E14251445DD8A0E0D054C23A
:1022200000F055C201F0026A036A55AF02D00206FF
:10223000030603C06DF202C06CF201C06BF200C075
:102240006AF2D89261C271F260C270F25FC26FF23C
:102250005EC26EF203C075F202C074F201C073F286
:1022600000C072F2000131DE03C06DF202C06CF2F8
:1022700001C06BF200C06AF231C200F032C201F05C
:10228000026A036A01AE02D00206030602016A5125
:1022900000266B5101226C5102226D51032201C0B4
:1022A0003FF200C03EF258C200F059C201F0026A8B
:1022B000036A59AF02D00206030603C06DF202C0E2
:1022C0006CF201C06BF200C06AF2D89265C271F282
:1022D00064C270F263C26FF262C26EF203C075F242
:1022E00002C074F201C073F200C072F20001EDDDB1
:1022F00003C06DF202C06CF201C06BF200C06AF262
:1023000031C200F032C201F0026A036A01AE02D0AB
:102310000206030602016A5100266B5101226C512C
:1023200002226D51032201C041F200C040F252C2AC
:1023300000F053C201F0026A036A53AF02D00206F2
:10234000030600505E2701505F23025060230350B4
:10235000612356C200F057C201F0026A036A57AF08
:1023600002D0020603060050622701506323025088
:1023700064230350652341AF03D03FAF0AD002D09E
:102380003FBF13D041513F5D10E303E13E51405D3B
:102390000CE23FC267F23EC266F241C23FF240C267
:1023A0003EF267C241F266C240F23E51405D6A6F42
:1023B0003F5141596B6F010E6A27000E6B233EC2DD
:1023C0006CF242C26DF26AC26EF23DC26FF200015F
:1023D000FBEC08F00201422BD8B4432B10D7375145
:1023E000425D006E38514359036E00C06AF26B6F54
:1023F0005BC26DF25AC26CF26F6F00C06EF20001E8
:10240000D0EC09F002C003F001C000F002C001F0FE
:10241000026A036A01AE02D00206030603C061F23B
:1024200002C060F201C05FF200C05EF202013351EF
:10243000425D006E34514359036E00C06AF26B6F07
:1024400057C26DF256C26CF26F6F00C06EF200019F
:10245000D0EC09F002C003F001C000F002C001F0AE
:10246000026A036A01AE02D00206030603C065F2E7
:1024700002C064F201C063F200C062F2020143AF25
:1024800003D03CAF0CD002D03CBFE9D043513C5DFF
:10249000D8A0E5D004E142513B5DD8A0E0D05CC2B9
:1024A00000F05DC201F0026A036A5DAF02D002066D
:1024B000030603C06DF202C06CF201C06BF200C0F3
:1024C0006AF2D89261C271F260C270F25FC26FF2BA
:1024D0005EC26EF203C075F202C074F201C073F204
:1024E00000C072F20001F1DC03C06DF202C06CF2B8
:1024F00001C06BF200C06AF235C200F036C201F0D2
:10250000026A036A01AE02D00206030602016A51A2
:1025100000266B5101226C5102226D51032201C031
:102520003FF200C03EF258C200F059C201F0026A08
:10253000036A59AF02D00206030603C06DF202C05F
:102540006CF201C06BF200C06AF2D89265C271F2FF
:1025500064C270F263C26FF262C26EF203C075F2BF
:1025600002C074F201C073F200C072F20001ADDC6F
:1025700003C06DF202C06CF201C06BF200C06AF2DF
:1025800031C200F032C201F0026A036A01AE02D029
:102590000206030602016A5100266B5101226C51AA
:1025A00002226D51032201C041F200C040F25AC222
:1025B00000F05BC201F0026A036A5BAF02D0020660
:1025C000030600505E2701505F2302506023035032
:1025D000612356C200F057C201F0026A036A57AF86
:1025E00002D0020603060050622701506323025006
:1025F00064230350652341AF03D03FAF0AD002D01C
:102600003FBF13D041513F5D10E303E13E51405DB8
:102610000CE23FC269F23EC268F241C23FF240C2E0
:102620003EF269C241F268C240F23E51405D6A6FBB
:102630003F5141596B6F010E6A27000E6B233EC25A
:102640006CF242C26DF26AC26EF23DC26FF20001DC
:10265000FBEC08F00201422BD8B4432B10D7000149
:102660007DEF13F002012381256B100E246F25BF2F
:1026700059D0255303E12451000854E2100ED880AC
:102680002455266F000E2555276F400ED8802455FF
:10269000286F000E2555296F100E24252A6F000E75
:1026A00025212B6F400E24252C6F000E25212D6F28
:1026B000100E24252E6F000E25212F6F000E23B142
:1026C000010E306F326B400E316F27C234F226C2DA
:1026D00033F229C236F228C235F22BC238F22AC2AE
:1026E00037F22DC23AF22CC239F22FC23CF22EC27E
:1026F0003BF230C23DF200015DD4020123A102D0C1
:10270000239101D023810001F2EC05F0010E0201BA
:102710002B6F00011DEC05F0050E0201245F000E79
:10272000255BA5D70001B5EF19F0020131517F08F3
:1027300003E332511F0801E204D031C206F032C275
:1027400007F0000190EF14F00201315302E1010E95
:10275000316F31C208F0000193EF14F002013251E1
:10276000200805E1065203E109A001D0D1D0325181
:10277000070804E1076A07C006F0CAD0325108080A
:102780000AE10850060DF350065C05E30850060DFB
:10279000F350065EBDD032510D0802E1066AB8D092
:1027A00032510A080CE10850080DF3500726085072
:1027B000070DF3500724200801E2076AA9D032511F
:1027C0001F0803E232517E0802E23F0E326F346B83
:1027D0003451040866E33251520812E3200E325D90
:1027E000050DF3503425036AF2CF37F2F29E000153
:1027F00004EC04F0020137BFF28E016E366F10D088
:10280000530E325D050DF3503425036AF2CF37F2D3
:10281000F29E00018CEC04F0020137BFF28E366F9D
:10282000356B355106083BE336A102D0338101D028
:102830003391082C14D034510624376F35510724B6
:10284000386F000E33B1010E396F37C288F238C2CB
:1028500089F28A6F000157EC06F01BD00201345157
:102860000802F3500624376F35510802F35007244D
:10287000386F000E33B1010E396F37C23AF238C2E9
:102880003BF208C03CF208C03DF23E6F00017FEC15
:1028900009F002013551352BD8903633C2D7342B8D
:1028A00097D70850050DF3500624376F0850070DD1
:1028B000F3CF38F237C23AF207C03BF208C03CF21D
:1028C00038C23DF23E6B00017FEC09F00850060D66
:1028D000F35006260850060DF350800F065C03E007
:1028E00002E3800E066E09A012D00850050DF350C9
:1028F000062480080CE2066A0850080DF3500726EB
:102900000850070DF3500724200801E2076A02016E
:10291000000193EF14F02CC231F22DC232F205D730
:1029200030C231F211D72FC203F002012EC2E9FFEB
:102930002FC2EAFFEF5212E02FC203F02E512E2BCE
:10294000D8B42F2BE96E03C0EAFFEFCF31F231C2CA
:1029500032F2000103D70001E6D7020100011200A4
:10296000260E02012D6F000140EC05F002012D6BD7
:10297000000140EC05F02AC22DF240EC05F0020106
:102980002D6B000140EC05F02BC22DF240EC05F060
:1029900002012D6B000140EC05F002012D690001E0
:1029A00040EC05F02F0E02012D6F000140EC05F008
:1029B000ABEF15F02E0E02012D6F000140EC05F07B
:1029C0001200270E02012D6F000140EC05F00201FC
:1029D0002D6B000140EC05F02AC22DF240EC05F011
:1029E00002012D6B000140EC05F02BC22DF240ECF2
:1029F00005F002012D6B000140EC05F002012D698C
:102A0000000140EC05F02F0E02012D6F000140EC9B
:102A100005F0C8EF15F0A30E02012D6F000140EC88
:102A200005F002012D6B000140EC05F0200E0201C3
:102A30002D6F000140EC05F0290E02012D6F000101
:102A400040EC05F002012D6B000140EC05F02AC2BC
:102A50002DF240EC05F002012D6B000140EC05F079
:102A60002BC22DF240EC05F0010E02012D6F00018A
:102A700040EC05F02F0E02012D6F000140EC05F037
:102A8000E5EF15F0A30E02012D6F000140EC05F0FB
:102A900002012D6B000140EC05F0200E02012D6FAC
:102AA000000140EC05F02A0E02012D6F000140EC00
:102AB00005F002012D6B000140EC05F02AC22DF259
:102AC00040EC05F002012D6B000140EC05F02BC23B
:102AD0002DF240EC05F0010E02012D6F000140ECDB
:102AE00005F02F0E02012D6F000140EC05F0F5EF0F
:102AF00015F044EC06F0020EEA6E230EE96EF2CFFA
:102B00002AF2F29E070E016EF76A000E02EC05F043
:102B10000A000900F5CFEEFF012EFBD702012ABF04
:102B2000F28E3A0E2C6F080E2D6F020E2F6F230EB1
:102B30002E6F020E306F0001EEDEF2EC05F0010E9A
:102B400002012B6F00011DEC05F002012A6B0F0E34
:102B50002B6F000105D7080E02012A6FFA0E2B6FAA
:102B600000011DEC05F002012A2FF8D7000122DF39
:102B7000040E02012A6FFA0E2B6F00011DEC05F006
:102B800002012A2FF8D72A6B0F0E2B6F000119D7DD
:102B9000080E02012A6FFA0E2B6F00011DEC05F0E2
:102BA00002012A2FF8D7000105DF040E02012A6F67
:102BB000FA0E2B6F00011DEC05F002012A2FF8D749
:102BC0002A6B070E2B6F000126D7080E02012A6F11
:102BD000FA0E2B6F00011DEC05F002012A2FF8D729
:102BE0002A6B070E2B6F00014DD7080E02012A6FCA
:102BF000FA0E2B6F00011DEC05F002012A2FF8D709
:102C00000001D8DEC7EF19F002013051D8B471D0FD
:102C1000006E3451D8B46DD0002604E3810E002636
:102C200068E204D07F0E005E64E363E031C238F2F4
:102C30003551381B318F358F33513703F4CF3AF28A
:102C400032513603F4CF03F0F3CF39F23703F350A8
:102C50003A27F4503923000E032233513603F35040
:102C60003A27F4503923000E026A0322022231511E
:102C70003703F3503927F4500322000E022231515A
:102C80003603F3500326F4500222000E016A01229B
:102C900033513503F3503927F4500322000E02223A
:102CA000012232513503F3500326F4500222000E64
:102CB000012231513503F3500226F4500122002A3B
:102CC00001BE05D039370336023601360006000E44
:102CD00039AF0AD0032A02220122015005E1025035
:102CE00003E1035001E1002A38BF018E38AF019E95
:102CF00004D0006A016A026A036A000112EF17F049
:102D000002013051B608306F036A31C234F2318F9C
:102D1000D89031333233333303320232013200324E
:102D2000302FF6D734AF0BD0001E011E021E031E3B
:102D3000002AD8B4012AD8B4022AD8B4032A000140
:102D400027EF17F0D8B204D0020EEA6E380EE96E03
:102D5000006A016A026A036A0201386B396B3A6BD6
:102D60003B6B37513611351134112CE0200E3C6F7E
:102D7000D8903037313732373337383739373A37F9
:102D80003B3737513B5D08E136513A5D05E135513E
:102D9000395D02E13451385D0FE33451385F35510C
:102DA000D8A0353D395F3651D8A0363D3A5F37510E
:102DB000D8A0373D3B5FD880003601360236033657
:102DC0003C2FD6D738C2EFFF39C2ECFF3AC2ECFF36
:102DD0003BC2ECFF000112000BC2EAFF0AC2E9FF8E
:102DE000020130C2EFFFE92AD8B4EA2AEF6A0A2BBF
:102DF000D8B40B2B00011200E9500201286F2751B3
:102E00002A6F1BE026C233F225C232F224C231F20D
:102E100023C230F2376B366B200E356F820E346F63
:102E20000001F2D603C026F202C025F201C024F24E
:102E300000C023F202012A2FE5D726C233F225C2B1
:102E400032F224C231F223C230F2000159D703C05A
:102E500026F202C025F201C024F200C023F20201D2
:102E600026AF0DD02807288B231F241F251F261FC0
:102E7000232BD8B4242BD8B4252BD8B4262B3B0E27
:102E80002F6F9A0E2E6FCA0E2D6F2C6B0A0E2A6FA3
:102E90002751D8B4282BD882020EEA6E230EE96E91
:102EA00026C233F225C232F224C231F223C230F2FA
:102EB0002FC237F22EC236F22DC235F22CC234F2B6
:102EC000000140DF0150005213E1020127292A5D71
:102ED000D8A402D000010CD028510DE00F0B2A5DC0
:102EE00001E040E228BF3ED028BD05D0200E34D0FE
:102EF000200E0201281728AB0ED0289B2751D8A4FA
:102F000028070050286F2D0E306F000165DF020189
:102F10002851006E286B27512A5D0CE10050286F64
:102F20002E0E306F000158DF02012851006E200E76
:102F30002817000E300E28AB0FD0289B2751D8A49D
:102F400028070050286F2D0E306F000145DF020169
:102F50002851006E286B300E002600C030F20001B0
:102F60003BDF0201D8922FC233F22EC232F22DC2C1
:102F700031F22CC230F2376B366B356B0A0E346F80
:102F80000001E0DE03C02FF202C02EF201C02DF2DC
:102F900000C02CF202012A2F7ED700010DEF1AF09B
:102FA000020124BF11D00F0E006E233900160A0E45
:102FB000005C03E2300E002602D02451002600C03F
:102FC00030F2000109DF02010F0E23170A0E235D04
:102FD00002E2300E02D0249F2451232723C230F274
:102FE0000001FADE12000201235307E0A70E2D6F45
:102FF000000140EC05F006D00201A60E2D6F000185
:1030000040EC05F01200F86AD09E938293801D0E6A
:10301000C86E280EC66EC79EC79CC78C0980020169
:103020000B6B0A6BC150C00B0F09C16E070EB46E5B
:10303000A2D03F400A0003808080800FC00004803F
:103040008080C0C03FC000088080C0E0F0F8FCF87D
:10305000E011C00005C080038000808004C000052E
:10306000C080048000FFFFFF04C00004C0800F8008
:1030700000008080000080FFFF80800080800004CE
:10308000C080038000808005C0000E80808000002A
:103090008C8E84000080F8F8F8800DC0000CC0F021
:1030A0000C80E0E0C08000E0FCFEFFFFFF7F05C079
:1030B000FF0EC0000380FEFFC704C001088083FF2D
:1030C000FF00007CFEC704C001358083FFFFFF00C6
:1030D00038FEC78301010183C7FFFF000001FFFF26
:1030E000010100FFFF0701010100007FFF800000D8
:1030F00000FFFF7F0000FFFFFF000001FFFFFF0157
:103100000DC0000580030F3F7F7F07C0FF0C80E7E5
:10311000C7C78F8F9FBFFFFFC3C0F005C0FF08C0A8
:10312000FC0880F8F8F0F0E0C0000105C00303805F
:1031300001030304C00001800104C00308800101F1
:1031400003010000000104C0030E8001010303001D
:1031500000000303000000030307C0000180010515
:10316000C0030D8001000000010301000000030303
:10317000010EC0000000000EF86E300EF76E320E29
:10318000F66E0900F550006E000A13E00900F550D4
:10319000016EE8BE05D00F0BEA6E0900F5CFE9FF1E
:1031A00001BC090001AC0900F5CFEEFF004EE9D7E4
:1031B000F9D7F86A040E236FFA0E2B6F00011DEC8D
:1031C00005F00201232FF8D794948B84020E236F0D
:1031D000780E246F000153EF05F0F2EC05F0080EB5
:1031E0000201236FFA0E2B6F00011DEC05F00201A6
:1031F000232FF8D7000144EC06F00A0E0201886F75
:10320000896F010E8A6F000157EC06F0F2EC05F0B1
:10321000080E0201236FFA0E2B6F00011DEC05F062
:103220000201232FF8D7000144EC06F0CAEF07F0A3
:10323000F2EC05F0080E0201236FFA0E2B6F00016D
:103240001DEC05F00201232FF8D7000144EC06F035
:1032500059EF09F0F2EC05F0080E0201236FFA0EA7
:103260002B6F00011DEC05F00201232FF8D70001A0
:1032700044EC06F09EEF09F0F2EC05F0080E0201B6
:10328000236FFA0E2B6F00011DEC05F00201232FB6
:10329000F8D7000144EC06F032EF0BF0F2EC05F049
:1032A000080E0201236FFA0E2B6F00011DEC05F0D2
:1032B0000201232FF8D7000144EC06F00201246B31
:1032C000400E236F266B100E256F286B0A0E276F9A
:1032D000010E296F000154EF0CF0F2EC05F0080E1E
:1032E0000201236FFA0E2B6F00011DEC05F00201A5
:1032F000232FF8D7000144EC06F03BEF0EF0F2EC80
:1033000005F0080E0201236FFA0E2B6F00011DEC71
:1033100005F00201232FF8D7000144EC06F0BEEFC0
:103320000EF0F2EC05F0080E0201236FFA0E2B6F7F
:1033300000011DEC05F00201232FF8D7000144EC39
:1033400006F032EF0FF0F2EC05F0080E0201236FE9
:10335000FA0E2B6F00011DEC05F00201232FF8D7A8
:10336000000144EC06F032EF13F0F2EC05F0080E29
:103370000201236FFA0E2B6F00011DEC05F0020114
:10338000232FF8D7000144EC06F079EF15F0F2ECAA
:1033900005F0080E0201236FFA0E2B6F00011DECE1
:1033A00005F00201232FF8D7000144EC06F0020ECD
:1033B000EA6E150EE96EF2CF23F2F29E0E0E016E4A
:1033C000F76A000E0EEC05F00A000900F5CFEEFFDB
:1033D000012EFBD7020123BFF28E020E2C6F070EC7
:1033E0002D6F020E2F6F150E2E6F010E306F000124
:1033F0008BEC14F0020E02010B6F0C0E0A6F890E9B
:10340000E96ED80E266F0F0E256F490E246F800EC1
:10341000236F060E276F0001EFD4020E02012C6FFE
:10342000100E2D6F020E2F6F0C0E2E6F010E306FCF
:1034300000018BEC14F0300E0201156F780E166F40
:10344000176B020E2C6F1A0E2D6F020E2F6F150EBA
:103450002E6F020E306F00018BEC14F0020E020191
:103460000B6F0C0E0A6FDE0E236F370E246F0001F8
:1034700097DDAD0E0201236F370E246F000190DD42
:10348000BE0E0201236F370E246F000189DDEF0E9F
:103490000201236F370E246F000182DD1A0E020134
:1034A0002C6F2D6F020E2F6F0C0E2E6F020E306FD1
:1034B00000018BEC14F0F2EC05F0080E0201236F12
:1034C000FA0E2B6F00011DEC05F00201232FF8D737
:1034D000010E236F000187DD040E0201236FFA0E37
:1034E0002B6F00011DEC05F00201232FF8D7236B91
:1034F000000179DD040E0201236FFA0E2B6F00012B
:0E3500001DEC05F00201232FF8D7E2D70300DF
:020000040030CA
:0E00000022CE1E1E000781000FC00FE00F4031
:00000001FF
;PIC18F2550
;CRC=3026  CREATED="08-févr.-21 00:41"
