:0408000000EF0DF008
:08080800046ED8CF05F0E0CF2B
:1008100006F00001E9CF0CF0EACF07F0E1CF08F0D5
:10082000E2CF09F0D9CF0AF0DACF0BF0F3CF12F014
:10083000F4CF13F0FACF14F000C00EF001C00FF0A7
:1008400002C010F003C011F0A0AA2AEF04F0A1BA70
:1008500011EF0CF00EC000F00FC001F010C002F05C
:1008600011C003F00CC0E9FF07C0EAFF078E08C003
:10087000E1FF09C0E2FF0AC0D9FF0BC0DAFF12C0D6
:10088000F3FF13C0F4FF14C0FAFF045006C0E0FFEA
:1008900005C0D8FF1000F76AA60FF66E080EF72203
:1008A0000900F5501200000302FFFFFFFFFFFFFFEA
:1008B000FFFFFFFFFFFFF76AC60FF66E080EF72275
:1008C0000900F550120000FF02FFFFFFFFFFFFFFCE
:1008D000FFFFFFFFFFFFF76AE60FF66E080EF72235
:1008E0000900F55012004000080040000000000020
:1008F00000000000000000000000000000000000F8
:1009000000000000000007AE03D0F2CF0DF0F29E11
:10091000F76A280FF66E090EF7220900F55007AEA8
:1009200002D00DBEF28E1200400000004000000018
:1009300000000000000000000000000000000000B7
:100940000000000000000000F76A580FF66E090E64
:10095000F7220900F550120009024300020100804D
:100960003209040000010202010005240010010404
:100970002402020524060001052401000107058167
:10098000030800FA09040100020A0000000705023A
:10099000024000010705820240000100F76AAC0F27
:1009A000F66E090EF7220900F55012000200F76AF0
:1009B000BE0FF66E090EF7220900F550120012174D
:1009C0001B20FFFFFFFFF76AD60FF66E090EF72216
:1009D0000900F550120012011001020000406104EC
:1009E0003300000101020001F76AF80FF66E090EEC
:1009F000F7220900F550120004030904080343001C
:100A000043005300180353004500520049004100C1
:100A10004C002000440045004D004F006D92699449
:100A200068A402D06894FCD71DEF0CF0400E0401BE
:100A3000016F040E036F180E026F880E006F046BB7
:100A4000040E076F580E066F0001000C70A002D054
:100A5000EDDF7090689A26EF0CF06A6A68922CEFCE
:100A60000CF0AA91A9BFAA81A99FA951100803E27D
:100A7000000E016E21D0AAA110D0036AA951F2CFB5
:100A8000ABF0F29E08DFABBFF28EFF0802E1000E72
:100A900001D0010E016E10D00FD0036AA951F2CF20
:100AA000ABF0F29E08DFABBFF28EFF0802E1000E52
:100AB00001D0010E016E00D0000CAE51B003F3CF97
:100AC00001F0F4CF00F0B103F3500026AF51B003B2
:100AD000F3500020026E000C036AA851700FE96EFB
:100AE0000F0E0320EA6EEF6AA8C0A9F0BADF015228
:100AF00022E0AF6BA8C0AEF0B16B080EB06FDDDFC7
:100B000001C0E9FF040E0224EA6EEF6AAF6BA8C0D1
:100B1000AEF0B16B080EB06FD0DF02C0AAF001C01A
:100B2000A9F0040EA927000EAA23A9C0E9FF040E0C
:100B3000AA25EA6EEF6A000C010EA76FA7510F08F5
:100B400005E3A7C0A8F0C8DFA72BF8D7000C306AD0
:100B50002F6A250E2E6E800E2D6E316A326A080EB7
:100B6000336E826B8191356A346A7D6B7E91000CA5
:100B70009D6B9D5101080AE3036A9D512B0FE96E9D
:100B8000000E0320EA6EEF6A9D2BF3D7E0DF1F6AA9
:100B9000010E206E1E6A000C6896000C6A6A686A74
:100BA0009F0E6B6E3D0E696E6E6AC6DFE1DF160E3C
:100BB000706E68A602D0F0DFFCD76D9837DF030EA9
:100BC000266E32EF0CF0698468986D8238EF0CF075
:100BD000689C3EEF0CF0A2C027F0000CFF0E276EC1
:100BE000000CA06B2A5235E0A0513F0832E321509F
:100BF00005E0020A0DE0010A15E01ED0036A295043
:100C0000F2CFA2F0F29EA0DEA2BFF28EA16F14D0AE
:100C1000036A2950F2CFA2F0F29EE6DEA2BFF28E66
:100C2000A16F0AD0036A2950F2CFA2F0F29ECBDE68
:100C3000A2BFF28EA16F00D0292A2A06A051A02BB4
:100C4000580FE96E040EEA6ED8B0EA2AA1C0EFFF91
:100C5000C9D72A5204E1A051400801E01E6AA0C091
:100C6000A2F0B9DF000C296A216A04011B51010AB4
:100C7000000107E0030A0AE0010A0BE0220A20E073
:100C80003AD0120E2A6E030E216E37D0430E2A6E12
:100C900034D0020E216E036A04011A51220FE96E4C
:100CA000000E0320EA6EEFCF29F0036A2950F2CF3D
:100CB0009FF0F29E000198DE9FBFF28E2A6E1DD03B
:100CC000036A04011A51F2CF9FF0F29E00016FDE19
:100CD0009FBFF28E296E293C01D00BD0036A2950A8
:100CE000F2CF9FF0F29E30DE9FBFF28E2A6E05D0CB
:100CF00002D074DF0ED072DF0CD004011F5305E167
:100D00002A501E5D02E21EC42AF0010E1E6E000172
:100D100068DFCBEF07F09F5304E1040E266E0CDF73
:100D2000E7D0050E266E040EA26F980EA16F010E7D
:100D3000A06FA0510F08D8A0DBD0A0C0A8F0CCDED7
:100D4000A36B036AA051F2CFA7F0F29EB4DDA7BF58
:100D5000F28EFF0863E0040EA36FD890A035036AFB
:100D6000F2CFA7F0F29ECFDD0900F5CF03F0A7BFC9
:100D7000F28EA46F03C0A5F0AF6BA0C0AEF0B16B54
:100D8000080EB06F9ADE01C0A7F0010E0124016EBB
:100D9000000E0220036E01C0E9FF040E0324EA6E78
:100DA000A4C0EFFFAF6BA0C0AEF0B16B080EB06F88
:100DB00084DE01C0A7F0020E0124016E000E0220A5
:100DC000036E01C0E9FF040E0324EA6EA2C0ECFF2B
:100DD000ED52A1C0EFFFD890A035036AF2CFA7F083
:100DE000F29E91DD0900F5CF03F0A7BFF28EA12797
:100DF0000350A223880EA66FA5B1A681A5B3A68332
:100E0000AF6BA0C0AEF0B16B080EB06F56DE01C084
:100E1000E9FF040E0224EA6EA6C0EFFF036AA051A8
:100E2000F2CFA7F0F29E37DDA7BFF28EFF0845E0B4
:100E3000A383AF6BA0C0AEF0B16B080EB06F3DDE08
:100E400002C0A8F001C0A7F0040EA727000EA82337
:100E5000020EA725016E000EA821036E01C0E9FF56
:100E6000040E0324EA6EA2C0ECFFED52A1C0EFFF16
:100E7000D890A035036AF2CFA7F0F29E2CDD0900CE
:100E8000F5CF03F0A7BFF28EA1270350A223AF6BCB
:100E9000A0C0AEF0B16B080EB06F0FDE02C0A8F0BC
:100EA00001C0A7F0040EA727000EA823A7C0E9FFE2
:100EB000040EA825EA6E400EEF6EA351060802E16B
:100EC0000E0EA36F036AA051F2CFA7F0F29EE3DCEF
:100ED000A7BFF28E0108D8A4A389036AA051700F9E
:100EE000E96E0F0E0320EA6EA3C0EFFFA02B21D7FF
:100EF000C5EF07F004011951000A00010DE0010AD5
:100F000014E0020A1EE0060A27E0030A2CE00E0A9B
:100F10002CE0010A30E03DD020C058F40401596BA8
:100F2000020E0001A26F57DE36D004011A2D06D042
:100F3000010E20160001A26B4EDE02D000014EDE33
:100F40002AD004011A2D05D020820001A26B43DEB5
:100F500002D0000143DE1FD0020E1E6E1AC428F01C
:100F6000A26B39DE18D07FD616D01FC058F4010E00
:100F7000A26F31DE10D004011A51010808E31AC42F
:100F80001FF01AC49FF00001C6D6A26B24DE000138
:100F900002D024DE00D044EF09F01FC09FF004010E
:100FA0001951000A000105E00A0A0BE0010A2BE0D2
:100FB0003CD00401586B596B020E0001A26F0BDE8E
:100FC00036D09F531EE0010E9F5D036AF2CFA0F062
:100FD000F29EE4DCA0BFF28E016E04011C5DD8A07D
:100FE00002D000010ED0036A1C512B0FE96E000ED7
:100FF0000320EA6EEFCF58F4010E0001A26FEBDD83
:1010000001D0ECDD14D09F530EE0036A04011C51A3
:101010002B0FE96E000E0320EA6E1AC4EFFF0001E9
:10102000A26BD9DD01D0DADD02D0D8DD00D044EFEB
:1010300009F0A0919FBFA0819F9FA0A117D0AF6B87
:101040009FC0AEF0B16B080EB06F37DD02C0A2F0EA
:1010500001C0A1F0040EA127000EA223A1C0E9FF48
:10106000040EA225EA6E880EEF6E0DD0AF6B9FC006
:10107000AEF0B16B080EB06F20DD01C0E9FF040EC9
:101080000224EA6EEF6AB9EF08F0A0919FBFA08139
:101090009F9FA0A117D0AF6B9FC0AEF0B16B080EA1
:1010A000B06F0BDD02C0A2F001C0A1F0040EA127B9
:1010B000000EA223A1C0E9FF040EA225EA6E840E51
:1010C000EF6E0ED0AF6B9FC0AEF0B16B080EB06F7D
:1010D000F4DC01C0E9FF040E0224EA6E840EEF6E18
:1010E000BFEF08F0A0919FBFA0819F9FA0A117D044
:1010F000AF6B9FC0AEF0B16B080EB06FDEDC02C00C
:10110000A3F001C0A2F0040EA227000EA323A2C0E8
:10111000E9FF040EA325EA6EEFCFA1F00ED0AF6B6E
:101120009FC0AEF0B16B080EB06FC7DC01C0E9FF25
:10113000040E0224EA6EEFCFA1F0A1AF02D0A1B558
:1011400002D0000E01D0010E016EC9EF08F01CC4E0
:10115000A9F087DC015229E004011951010A0001BC
:1011600005E0020A09E0030A0DE01DD01CC49FF04F
:1011700060D7A26B30DD19D01CC49FF086D7A26B5C
:101180002ADD13D00401586B596B1CC49FF0000179
:10119000A9D7015204E0010E0401586F0001020EAC
:1011A000A26F19DD02D01ADD00D044EF09F0FE0E67
:1011B000276E000C04011C2D01D002D01C5349E104
:1011C0001951000A00010BE0010A0DE0210A1CE0A0
:1011D000010A1FE0030A2EE0010A31E037D0010EB8
:1011E000846FE5DF35D0040EEA6E580EE96EE26AD0
:1011F000360EE16E080E016EE6CFEEFF012EFCD733
:101200001EC4A2F0E8DC24D0020E846F8181CFDFFF
:101210001FD0040EEA6E580EE96EE26A2D0EE16EE2
:10122000070E016EE6CFEEFF012EFCD7070EA26F70
:10123000D2DC0ED01AC482F0A26BCDDC09D01AC465
:1012400035F01BC434F0A26BC6DC02D0C7DC00D082
:101250000401000144EF09F01E6A040118517F0BDC
:10126000000A000107E0010A07E0030A07E0230A79
:1012700007E008D03FD608D090D606D068D704D073
:1012800099D702D0ABDC00D066EF0BF0AF6B9FC0FC
:10129000AEF0B16B080EB06F10DC01C0E9FF040EB8
:1012A0000224EA6EEFCFA1F0A051020806E1A1AD41
:1012B00002D0A06B02D0010EA06FA05103081AE16A
:1012C000840EA16FAF6B9FC0AEF0B16B080EB06F14
:1012D0005DEC05F002C0A5F001C0A4F0040EA42747
:1012E000000EA523A4C0E9FF040EA525EA6E840E16
:1012F000EF6E07D0A02D03D0C80EA16F02D0880ECC
:10130000A16FD8909F35036AF2CFA4F0F29E83ECD0
:1013100004F00900F5CF03F0A4BFF28EA26F03C062
:10132000A3F0AF6B9FC0AEF0B16B080EB06F5DEC79
:1013300005F001C0A4F0010E0124016E000E022090
:10134000036E01C0E9FF040E0324EA6EA2C0EFFFA2
:10135000A3B1A181A3B3A183AF6B9FC0AEF0B16B6A
:10136000080EB06F5DEC05F001C0E9FF040E022429
:10137000EA6EA1C0EFFF000C036AAD51700FE96E79
:101380000F0E0320EA6EEF5219E0AF6BADC0AEF066
:10139000B16B080EB06F5DEC05F002C0AFF001C09C
:1013A000AEF0040EAE27000EAF23AEC0E9FF040E70
:1013B000AF25EA6EEFCFAEF0AEAF02D0000E01D097
:1013C000010E016E000CA8C0ADF0D6DF0152D8B4FA
:1013D0007CD0AF6BA8C0AEF0B16B080EB06F5DEC07
:1013E00005F002C0AEF001C0ADF0040EAD27000E56
:1013F000AE23010EAD25016E000EAE21036E01C0BD
:10140000E9FF040E0324EA6EA9C0EFFFAB51020806
:101410001EE1AF6BA8C0AEF0B16B080EB06F5DEC13
:1014200005F002C0AEF001C0ADF0040EAD27000E15
:10143000AE23ADC0E9FF040EAE25EA6EEFCFACF0EF
:10144000ACAD02D0AB6B02D0010EAB6F18D0AB517C
:10145000040815E1AF6BA8C0AEF0B16B080EB06F19
:101460005DEC05F001C0E9FF040E0224EA6EEFCF47
:10147000ACF0ACAD03D0010EAB6F01D0AB6BAB2DBC
:1014800003D0C80EAC6F02D0880EAC6FAAB1AC818D
:10149000AAB3AC83AF6BA8C0AEF0B16B080EB06F4F
:1014A0005DEC05F002C0AEF001C0ADF0040EAD275A
:1014B000000EAE23ADC0E9FF040EAE25EA6EACC04F
:1014C000EFFF010E016E03D000D0000E016E000C84
:1014D0008451010A03E0030A13E024D0EA6A360EBD
:1014E000E96E040EE26E180EE16E080E016EE6CF94
:1014F000EEFF012EFCD7A26BEBEC05F0846B14D051
:10150000EA6A2D0EE96E040EE26E180EE16E070E09
:10151000016EE6CFEEFF012EFCD7846BA26BEBECE5
:1015200005F002D0846B00D0C0EF0AF0AF6BA0C012
:10153000AEF0B16B080EB06F5DEC05F002C0A2F02A
:1015400001C0A1F0010E0124016E000E0220036E05
:1015500001C0E9FF040E0324EA6E036AEFCF01F035
:1015600003C002F0B9EF0AF07E81806B020EA06F1B
:10157000DDD701C07FF0C5EF0AF09F5302E1A8D785
:1015800004D09F51020801E1EFD7000CA0C06EFF0C
:10159000A05303E0040E266E02D0020E266ED6EF94
:1015A0000AF01F6A1E6A28C0A0F0F0D745EF0BF0C2
:1015B000A0C0ADF0E1DE015246E0AF6BA0C0AEF0DE
:1015C000B16B080EB06F5DEC05F002C0A9F001C070
:1015D000A8F0040EA827000EA923020EA825016E6C
:1015E000000EA921036E01C0E9FF040E0324EA6E78
:1015F000ECCF03F0ED52EFCFA6F003C0A7F0A7C0E9
:10160000EAFFA6C0E9FFA2C0E2FFA1C0E1FFA4C0BB
:1016100002F0A3C001F0015202E0022A02D00252FD
:1016200006E0E6CFEEFF012EFCD7022EFAD7A0C0CF
:10163000A8F0A4C0AAF0A3C0A9F0A5C0ABF0C3DE77
:10164000015003D000D0000E016E000C020EA06FFE
:10165000A26B3E0EA16FA46B7DC0A3F0020EA56F1E
:10166000A7DF7DC083F07D6B000C7D5301E0EEDFD2
:101670004AEF0BF09F530AE11E2C03D0F1EC05F06A
:1016800004D01E50020801E18CD704D09F510208FB
:1016900001E1EBD7000C25309D6F9D339D331F0E6C
:1016A0009D17255242E1040100513C0B00019E6F41
:1016B000430E0401001700019E5134081EE104018D
:1016C0000451800B01E0046B0001C6D56D98273CE6
:1016D00005D09F6B030EA06FD9DD0ED09F6B020E5D
:1016E000A06FD4DD2750FE0807E0A86BAA6B27C0C7
:1016F000A9F0040EAB6F67DE17D09E51040814E109
:101700009F6B3BDF9F6B020EA06FC0DD2750FE0872
:101710000AE0273C01D007D0A86BAA6B27C0A9F02C
:10172000010EAB6F50DE00D07AD02550040814E1D2
:10173000430E04010417FF0E276E00019F6B9ADF12
:10174000273C01D008D0A86BAA6B27C0A9F0020ED5
:10175000AB6F39DE00D063D025B42AD0AF6B9DC00B
:10176000AEF0B16B080EB06F5DEC05F001C09FF0FC
:1017700001C001F0040E0224036E01C09FF0A06FAF
:10178000AF6B9DC0AEF0B16B080EB06F5DEC05F0B5
:1017900001C0E9FF040E0224EA6EEF50430BA0C023
:1017A000EAFF9FC0E9FFEF6E9DC09FF0E6DE37D0F5
:1017B000AF6B9DC0AEF0B16B080EB06F5DEC05F085
:1017C00002C0A0F001C09FF0040E9F27000EA023CE
:1017D0009FC001F0040EA025036E9FC09FF0A06F74
:1017E000AF6B9DC0AEF0B16B080EB06F5DEC05F055
:1017F00002C0A2F001C0A1F0040EA127000EA22396
:10180000A1C0E9FF040EA225EA6EEF50430BA0C071
:10181000EAFF9FC0E9FFEF6E9DC09FF02BDF48EF0E
:101820000CF0A19A265201E139D0685237E068A441
:1018300004D069A402D00EEF05F06DA201D02ED025
:1018400068AA04D069AA02D026EF05F068A204D0E5
:1018500069A202D02DEF05F068A004D069A002D0E3
:10186000CEEF05F068A804D069A802D0E3EF05F038
:1018700068AC04D069AC02D0E8EF05F09C6B68A6B8
:1018800008D069A606D06CCF25F0CCEC05F003D7C4
:1018900001D004D09C519C2B0308F1E22AEF04F004
:1018A0006D6A696A080E6F6E94503009946E266AEC
:1018B000166AF2BE168EF29EB8EC05F016BEF28ED7
:1018C00063EF0CF0EDD72EEF0DF0166AF2BE168E18
:1018D000F29EB8EC05F016BEF28E6D6A140E6F6EB5
:1018E000696A6D86010E266E79EF0CF06DB601D037
:1018F000ECD7262C0BD06DBA09D0686A696AA08A29
:10190000C00EF212110E696E020E266E31EF0DF04E
:101910009EAAFED7ABCF17F0AECF01F017A202D030
:10192000AB98AB8834EF0DF08891F2BE8881F29EBF
:101930007D513E0802E23E0E7D6F7D517D2B036A94
:101940003E0FE96E000E0320EA6E87C0EFFFF29EA5
:1019500088B1F28E166AF2BE168EF29E020EAD6F3E
:101960000BDD16BEF28E015207E0166AF2BE168E2D
:10197000F29E6CDE16BEF28ED7EF0CF07D513E0863
:1019800013E2166AF2BE168EF29E020EAD6FF4DC02
:1019900016BEF28E015207E0166AF2BE168EF29E55
:1019A00055DE16BEF28EEAD786C087F0BDD739EF76
:1019B0000DF07E91166AF2BE168EF29E020E9F6F99
:1019C000A06F64DC16BEF28EF7EF0CF07EB101D092
:1019D000FDD78051802BA00FE96E040EEA6ED8B0BF
:1019E000EA2AEFCF86F07F51805D01E3E2D786C01F
:1019F00001F03CEF0DF09EA8FED7AD6E40EF0DF06C
:101A0000F86AD09E078EEA6AE96AB896190EAF6E38
:101A1000A60EAC6E900EAB6E266A2A6A7D6B846B46
:101A2000C150C00B0F09C16E070EB46E176A186A59
:101A3000196A226A040E236E0C0E246EC150C00B6C
:101A40000F09C16E070EB46E9250926E270E006E93
:101A5000002EFED700D0B450A19C34D7A7EC05F0DF
:101A600045D79EAA06D054D701C085F085C086F020
:101A700085D77EA105D0AAD701C085F08551BBD7F7
:041A8000EFD7030099
:020000040030CA
:0E00000022CE1E1E000781000FC00FE00F4031
:00000001FF
;PIC18F2550
;CRC=A8CA  CREATED="20-janv.-21 18:52"
