:0408000089EF0DF07F
:08080800046ED8CF05F0E0CF2B
:1008100006F00001E9CF0CF0EACF07F0E1CF08F0D5
:10082000E2CF09F0D9CF0AF0DACF0BF0F3CF12F014
:10083000F4CF13F0FACF14F000C00EF001C00FF0A7
:1008400002C010F003C011F09DAA2AEF04F09EBA76
:1008500013EF0DF09DA830EF04F09EB8BFEF0CF041
:10086000A0AA36EF04F0A1BA7CEF0CF00EC000F0A5
:100870000FC001F010C002F011C003F00CC0E9FF7E
:1008800007C0EAFF078E08C0E1FF09C0E2FF0AC007
:10089000D9FF0BC0DAFF12C0F3FF13C0F4FF14C07E
:1008A000FAFF045006C0E0FF05C0D8FF1000F76A49
:1008B000BE0FF66E080EF7220900F5501200000375
:1008C00002FFFFFFFFFFFFFFFFFFFFFFFFFFF76AD2
:1008D000DE0FF66E080EF7220900F550120000FF39
:1008E00002FFFFFFFFFFFFFFFFFFFFFFFFFFF76AB2
:1008F000FE0FF66E080EF7220900F55012004000B8
:10090000080040000000000000000000000000009F
:10091000000000000000000000000000000007AE22
:1009200003D0F2CF0DF0F29EF76A400FF66E090E7B
:10093000F7220900F55007AE02D00DBEF28E12006C
:100940004000000040000000000000000000000027
:100950000000000000000000000000000000000097
:10096000F76A700FF66E090EF7220900F5501200B3
:100970000902430002010080320904000001020262
:1009800001000524001001042402020524060001D0
:100990000524010001070581030800FA090401008C
:1009A000020A00000007050202400001070582025A
:1009B00040000100F76AC40FF66E090EF722090025
:1009C000F55012000200F76AD60FF66E090EF722F4
:1009D0000900F550120012171B20FFFFFFFFF76AF6
:1009E000EE0FF66E090EF7220900F5501200120103
:1009F0001001020000406104330000010102000107
:100A0000F76A100FF66E0A0EF7220900F550120071
:100A10000403090408034300430053001803530070
:100A200045005200490041004C00200044004500B0
:100A30004D004F006D92699468A402D06894FCD771
:100A400088EF0CF0400E0401016F040E036F180EC6
:100A5000026F880E006F046B040E076F580E066F4E
:100A60000001000C70A002D0EDDF7090689A91EF49
:100A70000CF06A6A689297EF0CF00101029101BFD5
:100A80000281019F0151100803E2000E016E25D082
:100A900002A112D0036A0151F2CF03F1F29E0001CC
:100AA00006DF010103BFF28EFF0802E1000E01D054
:100AB000010E016E12D011D0036A0151F2CF03F181
:100AC000F29E000104DF010103BFF28EFF0802E184
:100AD000000E01D0010E016E00D00001000C0101DA
:100AE00007510903F3CF01F0F4CF00F00A03F350EC
:100AF000002608510903F3500020026E0001000C8B
:100B0000036A01010051700FE96E0F0E0320EA6EB7
:100B1000EF6A00C101F10001B0DF015227E00101DD
:100B2000086B00C107F10A6B080E096F0001D7DFDF
:100B3000010101C0E9FF040E0224EA6EEF6A086BAE
:100B400000C107F10A6B080E096F0001C8DF02C07F
:100B500002F101C001F1040E01010127000E022380
:100B600001C1E9FF040E0225EA6EEF6A0001000CE4
:100B7000010EFF6FFF510F0805E3FFC000F1C0DF5A
:100B8000FF2BF8D7000C306A2F6A250E2E6E800ED0
:100B90002D6E316A326A080E336E826B8191356A2E
:100BA000346A7D6B7E91000CF56BF55101080AE308
:100BB000036AF5512B0FE96E000E0320EA6EEF6A0F
:100BC000F52BF3D7E0DF1F6A010E206E1E6A000CC2
:100BD0006896000C6A6A686A9F0E6B6E3D0E696EBD
:100BE0006E6AC6DFE1DF160E706E68A602D0F0DF17
:100BF000FCD76D9827DF030E266E9DEF0CF06984FD
:100C000068986D82A3EF0CF0689CA9EF0CF0FAC015
:100C100027F0000CFF0E276E000CF86B2A5235E00F
:100C2000F8513F0832E3215005E0020A0DE0010AC5
:100C300015E01ED0036A2950F2CFFAF0F29E90DE42
:100C4000FABFF28EF96F14D0036A2950F2CFFAF08E
:100C5000F29ED6DEFABFF28EF96F0AD0036A2950EF
:100C6000F2CFFAF0F29EBBDEFABFF28EF96F00D03F
:100C7000292A2A06F851F82B580FE96E040EEA6E5D
:100C8000D8B0EA2AF9C0EFFFC9D72A5204E1F851D7
:100C9000400801E01E6AF8C0FAF0B9DF000C296ACA
:100CA000216A04011B51010A000107E0030A0AE05E
:100CB000010A0BE0220A20E03AD0120E2A6E030E3F
:100CC000216E37D0430E2A6E34D0020E216E036A95
:100CD00004011A51220FE96E000E0320EA6EEFCFD5
:100CE00029F0036A2950F2CFF7F0F29E000188DE66
:100CF000F7BFF28E2A6E1DD0036A04011A51F2CF9B
:100D0000F7F0F29E00015FDEF7BFF28E296E293CFC
:100D100001D00BD0036A2950F2CFF7F0F29E20DE0B
:100D2000F7BFF28E2A6E05D002D074DF0ED072DFCC
:100D30000CD004011F5305E12A501E5D02E21EC4BF
:100D40002AF0010E1E6E000168DFFCEF07F0F7537A
:100D500004E1040E266E0CDFFCD0050E266E040E98
:100D6000FA6F980EF96F010EF86FF8510F08D8A0BE
:100D7000F0D0F8C000F1C4DEFB6B036AF851F2CF8B
:100D8000FFF0F29EA4DDFFBFF28EFF086DE0040EBF
:100D9000FB6FD890F835036AF2CFFFF0F29EBFDD0B
:100DA0000900F5CF03F0FFBFF28EFC6F03C0FDF02A
:100DB0000101086BF8C007F10A6B080E096F00010A
:100DC0008EDE01C0FFF0010E0124016E000E010154
:100DD0000220036E01C0E9FF040E0324EA6EFCC08A
:100DE000EFFF086BF8C007F10A6B080E096F0001EE
:100DF00076DE01C0FFF0020E0124016E000E01013B
:100E00000220036E01C0E9FF040E0324EA6EFAC05B
:100E1000ECFFED52F9C0EFFFD8900001F835036AFE
:100E2000F2CFFFF0F29E7BDD0900F5CF03F0FFBFAC
:100E3000F28EF9270350FA23880EFE6FFDB1FE8172
:100E4000FDB3FE830101086BF8C007F10A6B080EC1
:100E5000096F000144DE01C0E9FF040E0101022414
:100E6000EA6EFEC0EFFF0001036AF851F2CFFFF017
:100E7000F29E1DDDFFBFF28EFF0850E0FB830101F3
:100E8000086BF8C007F10A6B080E096F000127DE36
:100E900002C000F101C0FFF0040EFF27000E0101A7
:100EA0000023020E0001FF25016E000E010100214A
:100EB000036E01C0E9FF040E0324EA6EFAC0ECFFE2
:100EC000ED52F9C0EFFFD8900001F835036AF2CF78
:100ED000FFF0F29E0CDD0900F5CF03F0FFBFF28EAC
:100EE000F9270350FA230101086BF8C007F10A6BD8
:100EF000080E096F0001F3DD02C000F101C0FFF030
:100F0000040EFF27000E01010023FFC0E9FF040EBD
:100F100001010025EA6E400EEF6E0001FB5106084C
:100F200002E10E0EFB6F036AF851F2CFFFF0F29E62
:100F3000BEDCFFBFF28E0108D8A4FB89036AF8511A
:100F4000700FE96E0F0E0320EA6EFBC0EFFFF82B67
:100F50000CD7F6EF07F004011951000A00010DE06B
:100F6000010A14E0020A1EE0060A27E0030A2CE048
:100F70000E0A2CE0010A30E03DD020C058F40401F4
:100F8000596B020E0001FA6F42DE36D004011A2DB1
:100F900006D0010E20160001FA6B39DE02D00001E6
:100FA00039DE2AD004011A2D05D020820001FA6B07
:100FB0002EDE02D000012EDE1FD0020E1E6E1AC4DD
:100FC00028F0FA6B24DE18D06AD616D01FC058F469
:100FD000010EFA6F1CDE10D004011A51010808E35B
:100FE0001AC41FF01AC4F7F00001B1D6FA6B0FDE75
:100FF000000102D00FDE00D081EF09F01FC0F7F032
:1010000004011951000A000105E00A0A0BE0010A77
:101010002BE03CD00401586B596B020E0001FA6FB3
:10102000F6DD36D0F7531EE0010EF75D036AF2CF0E
:10103000F8F0F29EBFDCF8BFF28E016E04011C5D79
:10104000D8A002D000010ED0036A1C512B0FE96E0C
:10105000000E0320EA6EEFCF58F4010E0001FA6F84
:10106000D6DD01D0D7DD14D0F7530EE0036A0401BA
:101070001C512B0FE96E000E0320EA6E1AC4EFFF1D
:101080000001FA6BC4DD01D0C5DD02D0C3DD00D0A4
:1010900081EF09F0F891F7BFF881F79FF8A119D017
:1010A0000101086BF7C007F10A6B080E096F000118
:1010B00016DD02C0FAF001C0F9F0040EF927000EA7
:1010C000FA23F9C0E9FF040EFA25EA6E880EEF6EE6
:1010D0000FD00101086BF7C007F10A6B080E096F0A
:1010E0000001FDDC01C0E9FF040E0224EA6EEF6A94
:1010F000F6EF08F0F891F7BFF881F79FF8A119D043
:101100000101086BF7C007F10A6B080E096F0001B7
:10111000E6DC02C0FAF001C0F9F0040EF927000E77
:10112000FA23F9C0E9FF040EFA25EA6E840EEF6E89
:1011300010D00101086BF7C007F10A6B080E096FA8
:101140000001CDDC01C0E9FF040E0224EA6E840E2A
:10115000EF6EFCEF08F0F891F7BFF881F79FF8A168
:1011600019D00101086BF7C007F10A6B080E096F6F
:101170000001B5DC02C0FBF001C0FAF0040EFA2752
:10118000000EFB23FAC0E9FF040EFB25EA6EEFCF49
:10119000F9F010D00101086BF7C007F10A6B080ED7
:1011A000096F00019CDC01C0E9FF040E0224EA6E15
:1011B000EFCFF9F0F9AF02D0F9B502D0000E01D0AF
:1011C000010E016E06EF09F01CC401F156DC01525C
:1011D00029E004011951010A000105E0020A09E0B1
:1011E000030A0DE01DD01CC4F7F054D7FA6B0FDDD5
:1011F00019D01CC4F7F07ED7FA6B09DD13D00401B7
:10120000586B596B1CC4F7F00001A5D7015204E0DC
:10121000010E0401586F0001020EFA6FF8DC02D0D3
:10122000F9DC00D081EF09F0FE0E276E000C0401FE
:101230001C2D01D002D01C5349E11951000A0001B4
:101240000BE0010A0DE0210A1CE0010A1FE0030A7D
:101250002EE0010A31E037D0010E846FE5DF35D092
:10126000040EEA6E580EE96EE26A360EE16E080E62
:10127000016EE6CFEEFF012EFCD71EC4FAF0C7DCEC
:1012800024D0020E846F8181CFDF1FD0040EEA6E5E
:10129000580EE96EE26A2D0EE16E070E016EE6CF82
:1012A000EEFF012EFCD7070EFA6FB1DC0ED01AC488
:1012B00082F0FA6BACDC09D01AC435F01BC434F0F0
:1012C000FA6BA5DC02D0A6DC00D00401000181EF9E
:1012D00009F01E6A040118517F0B000A000107E0A3
:1012E000010A07E0030A07E0230A07E008D033D623
:1012F00008D084D606D068D704D099D702D08ADC2B
:1013000000D0C3EF0BF00101086BF7C007F10A6BC7
:10131000080E096F00016FEC05F001C0E9FF040E33
:101320000224EA6EEFCFF9F0F851020806E1F9ADB8
:1013300002D0F86B02D0010EF86FF85103081CE1DF
:10134000840EF96F0101086BF7C007F10A6B080EF4
:10135000096F00016FEC05F002C0FDF001C0FCF068
:10136000040EFC27000EFD23FCC0E9FF040EFD2542
:10137000EA6E840EEF6E07D0F82D03D0C80EF96F19
:1013800002D0880EF96FD890F735036AF2CFFCF0DF
:10139000F29E8FEC04F00900F5CF03F0FCBFF28E53
:1013A000FA6F03C0FBF00101086BF7C007F10A6B8D
:1013B000080E096F00016FEC05F001C0FCF0010E92
:1013C0000124016E000E0220036E01C0E9FF040E2D
:1013D0000324EA6EFAC0EFFFFBB1F981FBB3F98396
:1013E0000101086BF7C007F10A6B080E096F0001D5
:1013F0006FEC05F001C0E9FF040E0224EA6EF9C0AB
:10140000EFFF000C036A01010651700FE96E0F0E29
:101410000320EA6EEF521BE0086B06C107F10A6B6E
:10142000080E096F00016FEC05F002C008F101C061
:1014300007F1040E01010727000E082307C1E9FF89
:10144000040E0825EA6EEFCF07F107AF02D0000EB9
:1014500001D0010E016E0001000C01C106F1D2DFC6
:101460000152D8B486D00101086B01C107F10A6BA3
:10147000080E096F00016FEC05F002C007F101C012
:1014800006F1040E01010627000E0723010E0625B2
:10149000016E000E0721036E01C0E9FF040E032454
:1014A000EA6E02C1EFFF0451020820E1086B01C19E
:1014B00007F10A6B080E096F00016FEC05F002C01E
:1014C00007F101C006F1040E01010627000E0723F3
:1014D00006C1E9FF040E0725EA6EEFCF05F105AD61
:1014E00002D0046B02D0010E046F1AD0045104081C
:1014F00017E1086B01C107F10A6B080E096F0001C3
:101500006FEC05F0010101C0E9FF040E0224EA6E50
:10151000EFCF05F105AD03D0010E046F01D0046BD0
:10152000042D03D0C80E056F02D0880E056F03B1DD
:10153000058103B30583086B01C107F10A6B080E2F
:10154000096F00016FEC05F002C007F101C006F160
:10155000040E01010627000E072306C1E9FF040E51
:101560000725EA6E05C1EFFF010E016E05D000D020
:101570000001000E016E01010001000C8451010AFE
:1015800003E0030A13E024D0EA6A360EE96E040E83
:10159000E26E180EE16E080E016EE6CFEEFF012E30
:1015A000FCD7FA6B07EC06F0846B14D0EA6A2D0EB8
:1015B000E96E040EE26E180EE16E070E016EE6CFC4
:1015C000EEFF012EFCD7846BFA6B07EC06F002D01D
:1015D000846B00D018EF0BF00101086BF8C007F125
:1015E0000A6B080E096F00016FEC05F002C0FAF0FB
:1015F00001C0F9F0010E0124016E000E0220036EFD
:1016000001C0E9FF040E0324EA6E036AEFCF01F084
:1016100003C002F011EF0BF07E81806B020EF86FB9
:10162000DBD701C07FF01DEF0BF0F75302E1A6D727
:1016300004D0F751020801E1EFD7000CF8C06EFFAB
:10164000F85303E0040E266E02D0020E266E2EEF33
:101650000BF01F6A1E6A28C0F8F0F0D7A2EF0BF05B
:10166000F9C006F1CFDE01524AE00101086BF9C072
:1016700007F10A6B080E096F00016FEC05F002C05C
:1016800002F101C001F1040E01010127000E022345
:10169000020E0125016E000E0221036E01C0E9FF5A
:1016A000040E0324EA6EECCF03F0ED52EFCFFFF00F
:1016B000000103C000F100C1EAFFFFC0E9FFFBC069
:1016C000E2FFFAC0E1FFFDC002F0FCC001F00152F0
:1016D00002E0022A02D0025206E0E6CFEEFF012E1F
:1016E000FCD7022EFAD7F9C001F1FDC003F1FCC00E
:1016F00002F1FEC004F1B1DE015003D000D0000EB3
:10170000016E8EEF0BF0020EF96FFB6B3E0EFA6F5F
:10171000FD6B7DC0FCF0020EFE6FA2D77DC083F092
:101720007D6B000C7D5301E0EEDFA7EF0BF0F7536C
:101730000AE11E2C03D00DEC06F004D01E50020866
:1017400001E187D704D0F751020801E1EBD7000C83
:101750002530F56FF533F5331F0EF517255246E1A9
:10176000040100513C0B0001F66F430E0401001709
:101770000001F651340820E104010451800B01E01E
:10178000046B0001A6D56D98273C05D0F76B030EBE
:10179000F86FB9DD10D0F76B020EF86FB4DD27508B
:1017A000FE0809E00101016B036B27C002F1040E82
:1017B000046F000152DE19D0F651040816E1F76BF0
:1017C00034DFF76B020EF86F9EDD2750FE080CE049
:1017D000273C01D009D00101016B036B27C002F146
:1017E000010E046F000139DE00D084D025500408BA
:1017F00016E1430E04010417FF0E276E0001F76B7C
:1018000096DF273C01D00AD00101016B036B27C092
:1018100002F1020E046F000120DE00D06BD025B46F
:101820002ED00101086BF5C007F10A6B080E096F95
:1018300000016FEC05F001C0F7F001C001F0040EEB
:101840000224036E01C0F7F0F86F0101086BF5C0C8
:1018500007F10A6B080E096F00016FEC05F001C07B
:10186000E9FF040E0224EA6EEF50430BF8C0EAFFD2
:10187000F7C0E9FFEF6EF5C0F7F0D7DE3BD001010E
:10188000086BF5C007F10A6B080E096F00016FECD9
:1018900005F002C0F8F001C0F7F0040EF727000EC3
:1018A000F823F7C001F0040EF825036EF7C0F7F037
:1018B000F86F0101086BF5C007F10A6B080E096F9C
:1018C00000016FEC05F002C0FAF001C0F9F0040E5F
:1018D000F927000EFA23F9C0E9FF040EFA25EA6E93
:1018E000EF50430BF8C0EAFFF7C0E9FFEF6EF5C019
:1018F000F7F01DDFB3EF0CF0A19A265201E139D0C9
:10190000685237E068A404D069A402D01AEF05F049
:101910006DA201D02ED068AA04D069AA02D032EFFD
:1019200005F068A204D069A202D039EF05F068A0E2
:1019300004D069A002D0EAEF05F068A804D069A835
:1019400002D0FFEF05F068AC04D069AC02D004EF20
:1019500006F0F46B68A608D069A606D06CCF25F017
:10196000E8EC05F0F5D601D004D0F451F42B0308CF
:10197000F1E236EF04F09EA8FED7AD6E000CC65122
:10198000C55D10E0036AC651850FE96E000E0320A5
:10199000EA6EEFCFF4F0F451EEDF010EC6253F0BF7
:1019A000C66F01D09D989E9836EF04F09EAAFED790
:1019B000ABCF17F0AECF01F017A202D0AB98AB8837
:1019C0001FEF0DF0F891F2BEF881F29E7D513E08B6
:1019D00002E23E0E7D6F7D517D2B036A3E0FE96E64
:1019E000000E0320EA6EF7C0EFFFF29EF8B1F28E10
:1019F000020E0101066F000105DD015201E083DEE8
:101A000011EF0DF07D513E0809E2020E0101066F53
:101A10000001F8DC015201E076DEF4D7F6C0F7F001
:101A2000D1D731EF0DF0036AE751C70FE96E000E11
:101A30000320EA6EEACFF8F0E9CFF7F0B7D7F8C0A5
:101A4000EAFFF7C0E9FF01C0EFFF036AE751C70FE4
:101A5000E96E000E0320EA6EEFCFF5F0F5C0F6F068
:101A6000D1D7E7C0F4F0010EE7251F0BE76FE8516F
:101A7000E75D02E1F4C0E7F09E9A36EF04F06D6A8C
:101A8000696A080E6F6E94503009946E266A166A61
:101A9000F2BE168EF29ED4EC05F016BEF28E52EF18
:101AA0000DF0EDD7B3EF0DF0E851E75DFDE0036A0F
:101AB000E851C70FE96E000E0320EA6EEFCFE9F0A0
:101AC000010EE8251F0BE86FE9C001F0000C7E91C4
:101AD000166AF2BE168EF29E020EF76FF86F13DCD6
:101AE00016BEF28E85EF0DF07EB101D0FDD780518C
:101AF000802BA00FE96E040EEA6ED8B0EA2AEFCF71
:101B0000E9F07F51805D01E3E2D7E9C001F0BFEF6A
:101B10000DF0F86AD09E078EEA6AE96AB896190E47
:101B2000AF6EA60EAC6E900EAB6E266A2A6A7D6B07
:101B3000846BC56BC66BE76BE86BC150C00B0F09BC
:101B4000C16E070EB46E176A186A196A226A040E0B
:101B5000236E0C0E246EC150C00B0F09C16E9D8AFE
:101B6000C00EF2129ED7C3EC05F0C70E006E002E19
:101B7000FED700D0E851E75D03E096DFB5D7FAD78E
:0E1B800093DF01C0E9F0E951F6DEEFD7030074
:020000040030CA
:0E00000022CE1E1E000781000FC00FE00F4031
:00000001FF
;PIC18F2550
;CRC=28DE  CREATED="06-févr.-21 22:50"
