:020000040000FA
:04080000DCEF0CF02D
:08080800046ED8CF05F0E0CF2B
:1008100006F00001E9CF0CF0EACF07F0E1CF08F0D5
:10082000E2CF09F0D9CF0AF0DACF0BF0F3CF12F014
:10083000F4CF13F0FACF14F000C00EF001C00FF0A7
:1008400002C010F003C011F09DAA2AEF04F09EBA76
:100850005BEF0CF0A0AA30EF04F0A1BA10EF0CF09F
:100860000EC000F00FC001F010C002F011C003F084
:100870000CC0E9FF07C0EAFF078E08C0E1FF09C00E
:10088000E2FF0AC0D9FF0BC0DAFF12C0F3FF13C0AA
:10089000F4FF14C0FAFF045006C0E0FF05C0D8FF03
:1008A0001000F76AB20FF66E080EF7220900F55035
:1008B0001200000302FFFFFFFFFFFFFFFFFFFFFF2C
:1008C000FFFFF76AD20FF66E080EF7220900F55007
:1008D000120000FF02FFFFFFFFFFFFFFFFFFFFFF10
:1008E000FFFFF76AF20FF66E080EF7220900F550C7
:1008F000120040000800400000000000000000005E
:1009000000000000000000000000000000000000E7
:100910000000F76A220FF66E090EF7220900F55063
:100920001200400000004000000000000000000035
:1009300000000000000000000000000000000000B7
:100940000000F76A520FF66E090EF7220900F55003
:100950001200090243000201008032090400000174
:1009600002020100052400100104240202052406ED
:1009700000010524010001070581030800FA0904AC
:100980000100020A000000070502024000010705FD
:10099000820240000100F76AA60FF66E090EF722E8
:1009A0000900F55012000200F76AB80FF66E090E42
:1009B000F7220900F550120012171B20FFFFFFFF5E
:1009C000F76AD00FF66E090EF7220900F5501200F3
:1009D0001201100102000040610433000001010215
:1009E0000001F76AF20FF66E090EF7220900F550C2
:1009F00012000403090408034300430053001803D2
:100A0000530045005200490041004C0020004400C2
:100A100045004D004F006D92699468A402D068941F
:100A2000FCD71CEF0CF0400E0401016F040E036FA5
:100A3000180E026F880E006F046B040E076F580EBD
:100A4000066F0001000C70A002D0EDDF7090689A74
:100A500025EF0CF06A6A68922BEF0CF0BA91B9BFDF
:100A6000BA81B99FB951100803E2000E016E21D07E
:100A7000BAA110D0036AB951F2CFBBF0F29E11DFD8
:100A8000BBBFF28EFF0802E1000E01D0010E016E25
:100A900010D00FD0036AB951F2CFBBF0F29E11DF34
:100AA000BBBFF28EFF0802E1000E01D0010E016E05
:100AB00000D0000CBE51C003F3CF01F0F4CF00F022
:100AC000C103F3500026BF51C003F3500020026E53
:100AD000000C036AB851700FE96E0F0E0320EA6E26
:100AE000EF6AB8C0B9F0BADF015222E0BF6BB8C0FC
:100AF000BEF0C16B080EC06FDDDF01C0E9FF040E60
:100B00000224EA6EEF6ABF6BB8C0BEF0C16B080E7C
:100B1000C06FD0DF02C0BAF001C0B9F0040EB9272F
:100B2000000EBA23B9C0E9FF040EBA25EA6EEF6AD7
:100B3000000C010EB76FB7510F0805E3B7C0B8F04E
:100B4000C8DFB72BF8D7000C316A306A250E2F6E3C
:100B5000800E2E6E326A336A080E346E826B1892E3
:100B6000366A356A7E6B7F91000CAD6BAD51010822
:100B70000AE3036AAD512C0FE96E000E0320EA6E02
:100B8000EF6AAD2BF3D7E0DF206A010E216E1F6AFA
:100B9000000C6896000C6A6A686A9F0E6B6E3D0EC8
:100BA000696E6E6AC6DFE1DF160E706E68A602D04F
:100BB000F0DFFCD76D9837DF030E276E31EF0CF0B6
:100BC000698468986D8237EF0CF0689C3DEF0CF0FB
:100BD000B2C028F0000CFF0E286E000CB06B2B5238
:100BE00035E0B0513F0832E3225005E0020A0DE043
:100BF000010A15E01ED0036A2A50F2CFB2F0F29E2D
:100C0000A0DEB2BFF28EB16F14D0036A2A50F2CFC9
:100C1000B2F0F29EE6DEB2BFF28EB16F0AD0036A86
:100C20002A50F2CFB2F0F29ECBDEB2BFF28EB16F9D
:100C300000D02A2A2B06B051B02B580FE96E040EB3
:100C4000EA6ED8B0EA2AB1C0EFFFC9D72B5204E14F
:100C5000B051400801E01F6AB0C0B2F0B9DF000C2B
:100C60002A6A226A04011B51010A000107E0030AF3
:100C70000AE0010A0BE0220A20E03AD0120E2B6EA5
:100C8000030E226E37D0430E2B6E34D0020E226E2E
:100C9000036A04011A51230FE96E000E0320EA6E65
:100CA000EFCF2AF0036A2A50F2CFAFF0F29E000194
:100CB00098DEAFBFF28E2B6E1DD0036A04011A516D
:100CC000F2CFAFF0F29E00016FDEAFBFF28E2A6E60
:100CD0002A3C01D00BD0036A2A50F2CFAFF0F29E2B
:100CE00030DEAFBFF28E2B6E05D002D074DF0ED097
:100CF00072DF0CD004011F5305E12B501E5D02E290
:100D00001EC42BF0010E1F6E000168DFC8EF07F054
:100D1000AF5304E1040E276E0CDFE7D0050E276EFB
:100D2000040EB26F980EB16F010EB06FB0510F0884
:100D3000D8A0DBD0B0C0B8F0CCDEB36B036AB05142
:100D4000F2CFB7F0F29EBDDDB7BFF28EFF0863E0D1
:100D5000040EB36FD890B035036AF2CFB7F0F29EAD
:100D6000D8DD0900F5CF03F0B7BFF28EB46F03C032
:100D7000B5F0BF6BB0C0BEF0C16B080EC06F9ADE9D
:100D800001C0B7F0010E0124016E000E0220036EB7
:100D900001C0E9FF040E0324EA6EB4C0EFFFBF6B8D
:100DA000B0C0BEF0C16B080EC06F84DE01C0B7F0EA
:100DB000020E0124016E000E0220036E01C0E9FF45
:100DC000040E0324EA6EB2C0ECFFED52B1C0EFFF97
:100DD000D890B035036AF2CFB7F0F29E9ADD0900E1
:100DE000F5CF03F0B7BFF28EB1270350B223880EC0
:100DF000B66FB5B1B681B5B3B683BF6BB0C0BEF048
:100E0000C16B080EC06F56DE01C0E9FF040E02245C
:100E1000EA6EB6C0EFFF036AB051F2CFB7F0F29EB0
:100E200040DDB7BFF28EFF0845E0B383BF6BB0C0B3
:100E3000BEF0C16B080EC06F3DDE02C0B8F001C04D
:100E4000B7F0040EB727000EB823020EB725016EC7
:100E5000000EB821036E01C0E9FF040E0324EA6E00
:100E6000B2C0ECFFED52B1C0EFFFD890B035036ACD
:100E7000F2CFB7F0F29E35DD0900F5CF03F0B7BF32
:100E8000F28EB1270350B223BF6BB0C0BEF0C16B6E
:100E9000080EC06F0FDE02C0B8F001C0B7F0040E3C
:100EA000B727000EB823B7C0E9FF040EB825EA6ED5
:100EB000400EEF6EB351060802E10E0EB36F036AE7
:100EC000B051F2CFB7F0F29EECDCB7BFF28E010862
:100ED000D8A4B389036AB051700FE96E0F0E0320D6
:100EE000EA6EB3C0EFFFB02B21D7C2EF07F00401C9
:100EF0001951000A00010DE0010A14E0020A1EE087
:100F0000060A27E0030A2CE00E0A2CE0010A30E072
:100F10003DD021C058F40401596B020E0001B26F9C
:100F200057DE36D004011A2D06D0010E211600011D
:100F3000B26B4EDE02D000014EDE2AD004011A2D23
:100F400005D021820001B26B43DE02D0000143DEF6
:100F50001FD0020E1F6E1AC429F0B26B39DE18D0F2
:100F60007FD616D020C058F4010EB26F31DE10D0FB
:100F700004011A51010808E31AC420F01AC4AFF0A2
:100F80000001C6D6B26B24DE000102D024DE00D000
:100F900041EF09F020C0AFF004011951000A00012F
:100FA00005E00A0A0BE0010A2BE03CD00401586B73
:100FB000596B020E0001B26F0BDE36D0AF531EE04C
:100FC000010EAF5D036AF2CFB0F0F29EE4DCB0BF79
:100FD000F28E016E04011C5DD8A002D000010ED07B
:100FE000036A1C512C0FE96E000E0320EA6EEFCF4E
:100FF00058F4010E0001B26FEBDD01D0ECDD14D02E
:10100000AF530EE0036A04011C512C0FE96E000E71
:101010000320EA6E1AC4EFFF0001B26BD9DD01D0E4
:10102000DADD02D0D8DD00D041EF09F0B091AFBFDA
:10103000B081AF9FB0A117D0BF6BAFC0BEF0C16B86
:10104000080EC06F37DD02C0B2F001C0B1F0040E6F
:10105000B127000EB223B1C0E9FF040EB225EA6E3B
:10106000880EEF6E0DD0BF6BAFC0BEF0C16B080E27
:10107000C06F20DD01C0E9FF040E0224EA6EEF6AB2
:10108000B6EF08F0B091AFBFB081AF9FB0A117D05D
:10109000BF6BAFC0BEF0C16B080EC06F0BDD02C0EE
:1010A000B2F001C0B1F0040EB127000EB223B1C0FE
:1010B000E9FF040EB225EA6E840EEF6E0ED0BF6B10
:1010C000AFC0BEF0C16B080EC06FF4DC01C0E9FF19
:1010D000040E0224EA6E840EEF6EBCEF08F0B091AD
:1010E000AFBFB081AF9FB0A117D0BF6BAFC0BEF094
:1010F000C16B080EC06FDEDC02C0B3F001C0B2F0FD
:10110000040EB227000EB323B2C0E9FF040EB325CC
:10111000EA6EEFCFB1F00ED0BF6BAFC0BEF0C16BC7
:10112000080EC06FC7DC01C0E9FF040E0224EA6E9E
:10113000EFCFB1F0B1AF02D0B1B502D0000E01D007
:10114000010E016EC6EF08F01CC4B9F087DC015235
:1011500029E004011951010A000105E0020A09E031
:10116000030A0DE01DD01CC4AFF060D7B26B30DDB8
:1011700019D01CC4AFF086D7B26B2ADD13D004019E
:10118000586B596B1CC4AFF00001A9D7015204E0A1
:10119000010E0401586F0001020EB26F19DD02D07A
:1011A0001ADD00D041EF09F0FE0E286E000C04019C
:1011B0001C2D01D002D01C5349E11951000A000135
:1011C0000BE0010A0DE0210A1CE0010A1FE0030AFE
:1011D0002EE0010A31E037D0010E846FE5DF35D013
:1011E000040EEA6E580EE96EE26A370EE16E080EE2
:1011F000016EE6CFEEFF012EFCD71EC4B2F0E8DC94
:1012000024D0020E846F1882CFDF1FD0040EEA6E46
:10121000580EE96EE26A2E0EE16E070E016EE6CF01
:10122000EEFF012EFCD7070EB26FD2DC0ED01AC42F
:1012300082F0B26BCDDC09D01AC436F01BC435F095
:10124000B26BC6DC02D0C7DC00D00401000141EF64
:1012500009F01F6A040118517F0B000A000107E022
:10126000010A07E0030A07E0230A07E008D03FD697
:1012700008D090D606D068D704D099D702D0ABDC7E
:1012800000D065EF0BF0BF6BAFC0BEF0C16B080EB6
:10129000C06F10DC01C0E9FF040E0224EA6EEFCF3C
:1012A000B1F0B051020806E1B1AD02D0B06B02D08E
:1012B000010EB06FB05103081AE1840EB16FBF6B1D
:1012C000AFC0BEF0C16B080EC06F5AEC05F002C093
:1012D000B5F001C0B4F0040EB427000EB523B4C0BD
:1012E000E9FF040EB525EA6E840EEF6E07D0B02D2F
:1012F00003D0C80EB16F02D0880EB16FD890AF3551
:10130000036AF2CFB4F0F29E89EC04F00900F5CF45
:1013100003F0B4BFF28EB26F03C0B3F0BF6BAFC0C7
:10132000BEF0C16B080EC06F5AEC05F001C0B4F0FE
:10133000010E0124016E000E0220036E01C0E9FFC0
:10134000040E0324EA6EB2C0EFFFB3B1B181B3B3B0
:10135000B183BF6BAFC0BEF0C16B080EC06F5AEC5B
:1013600005F001C0E9FF040E0224EA6EB1C0EFFFF0
:10137000000C036ABD51700FE96E0F0E0320EA6E78
:10138000EF5219E0BF6BBDC0BEF0C16B080EC06F5D
:101390005AEC05F002C0BFF001C0BEF0040EBE273B
:1013A000000EBF23BEC0E9FF040EBF25EA6EEFCFDB
:1013B000BEF0BEAF02D0000E01D0010E016E000CD7
:1013C000B8C0BDF0D6DF0152D8B47CD0BF6BB8C076
:1013D000BEF0C16B080EC06F5AEC05F002C0BEF043
:1013E00001C0BDF0040EBD27000EBE23010EBD25B9
:1013F000016E000EBE21036E01C0E9FF040E03243E
:10140000EA6EB9C0EFFFBB5102081EE1BF6BB8C066
:10141000BEF0C16B080EC06F5AEC05F002C0BEF002
:1014200001C0BDF0040EBD27000EBE23BDC0E9FF04
:10143000040EBE25EA6EEFCFBCF0BCAD02D0BB6B94
:1014400002D0010EBB6F18D0BB51040815E1BF6B71
:10145000B8C0BEF0C16B080EC06F5AEC05F001C0F9
:10146000E9FF040E0224EA6EEFCFBCF0BCAD03D05E
:10147000010EBB6F01D0BB6BBB2D03D0C80EBC6F80
:1014800002D0880EBC6FBAB1BC81BAB3BC83BF6B4B
:10149000B8C0BEF0C16B080EC06F5AEC05F002C0B8
:1014A000BEF001C0BDF0040EBD27000EBE23BDC0BE
:1014B000E9FF040EBE25EA6EBCC0EFFF010E016E0F
:1014C00003D000D0000E016E000C8451010A03E02D
:1014D000030A13E024D0EA6A370EE96E040EE26EC6
:1014E000180EE16E080E016EE6CFEEFF012EFCD75E
:1014F000B26BE8EC05F0846B14D0EA6A2E0EE96E4C
:10150000040EE26E180EE16E070E016EE6CFEEFFDE
:10151000012EFCD7846BB26BE8EC05F002D0846B33
:1015200000D0BDEF0AF0BF6BB0C0BEF0C16B080EBB
:10153000C06F5AEC05F002C0B2F001C0B1F0010E6C
:101540000124016E000E0220036E01C0E9FF040EAB
:101550000324EA6E036AEFCF01F003C002F0B6EF96
:101560000AF07F81816B020EB06FDDD701C080F081
:10157000C2EF0AF0AF5302E1A8D704D0AF5102087E
:1015800001E1EFD7000CB0C06EFFB05303E0040ED2
:10159000276E02D0020E276ED3EF0AF0206A1F6A70
:1015A00029C0B0F0F0D744EF0BF0B0C0BDF0E1DEE1
:1015B000015246E0BF6BB0C0BEF0C16B080EC06FF9
:1015C0005AEC05F002C0B9F001C0B8F0040EB8271B
:1015D000000EB923020EB825016E000EB921036E6C
:1015E00001C0E9FF040E0324EA6EECCF03F0ED52D4
:1015F000EFCFB6F003C0B7F0B7C0EAFFB6C0E9FF5F
:10160000B2C0E2FFB1C0E1FFB4C002F0B3C001F06C
:10161000015202E0022A02D0025206E0E6CFEEFFBB
:10162000012EFCD7022EFAD7B0C0B8F0B4C0BAF081
:10163000B3C0B9F0B5C0BBF0C3DE015003D000D0D9
:10164000000E016E2FEF0BF0020EB06FB26B3F0E6B
:10165000B16FB46B7EC0B3F0020EB56FA6D77EC07B
:1016600083F07E6B37EF0BF07E5301E0EDD749EF4F
:101670000BF0AF530AE11F2C03D0EEEC05F004D0C1
:101680001F50020801E18AD704D0AF51020801E1DE
:10169000EBD7000C2630AD6FAD33AD331F0EAD1759
:1016A000265242E1040100513C0B0001AE6F430E93
:1016B000040100170001AE5134081EE10401045179
:1016C000800B01E0046B0001C4D56D98283C05D067
:1016D000AF6B030EB06FD7DD0ED0AF6B020EB06FE5
:1016E000D2DD2850FE0807E0B86BBA6B28C0B9F00D
:1016F000040EBB6F65DE17D0AE51040814E1AF6B6A
:1017000039DFAF6B020EB06FBEDD2850FE080AE075
:10171000283C01D007D0B86BBA6B28C0B9F0010ED5
:10172000BB6F4EDE00D07AD02650040814E1430E81
:1017300004010417FF0E286E0001AF6B9ADF283CEE
:1017400001D008D0B86BBA6B28C0B9F0020EBB6FDD
:1017500037DE00D063D026B42AD0BF6BADC0BEF058
:10176000C16B080EC06F5AEC05F001C0AFF001C0AC
:1017700001F0040E0224036E01C0AFF0B06FBF6B26
:10178000ADC0BEF0C16B080EC06F5AEC05F001C0D1
:10179000E9FF040E0224EA6EEF50430BB0C0EAFFEB
:1017A000AFC0E9FFEF6EADC0AFF0E4DE37D0BF6B86
:1017B000ADC0BEF0C16B080EC06F5AEC05F002C0A0
:1017C000B0F001C0AFF0040EAF27000EB023AFC0E1
:1017D00001F0040EB025036EAFC0AFF0B06FBF6B69
:1017E000ADC0BEF0C16B080EC06F5AEC05F002C070
:1017F000B2F001C0B1F0040EB127000EB223B1C0A7
:10180000E9FF040EB225EA6EEF50430BB0C0EAFFC9
:10181000AFC0E9FFEF6EADC0AFF02BDF47EF0CF0CC
:10182000A19A275201E139D0685237E068A404D068
:1018300069A402D00BEF05F06DA201D02ED068AAEA
:1018400004D069AA02D023EF05F068A204D069A2EF
:1018500002D02AEF05F068A004D069A002D0CBEF37
:1018600005F068A804D069A802D0E0EF05F068ACE4
:1018700004D069AC02D0E5EF05F0AC6B68A608D0E7
:1018800069A606D06CCF26F0C9EC05F003D701D0CD
:1018900004D0AC51AC2B0308F1E230EF04F09EAA67
:1018A000FED7ABCF17F0AECF01F017A202D0AB98A6
:1018B000AB8867EF0CF0036AA551850FE96E000E47
:1018C0000320EA6EEACFB0F0E9CFAFF0E8D7B0C0BE
:1018D000EAFFAFC0E9FF01C0EFFFA5C0ACF0010E09
:1018E000A5251F0BA56FA651A55D02E1ACC0A5F013
:1018F0009E9A30EF04F06D6A696A080E6F6E94501C
:101900003009946E276A166AF2BE168EF29EB5EC06
:1019100005F016BEF28E8EEF0CF0EDD712EF0DF043
:10192000166AF2BE168EF29EB5EC05F016BEF28E69
:101930006D6A140E6F6E696A6D86010E276EA4EFD4
:101940000CF06DB601D0ECD7272C0BD06DBA09D0B6
:10195000686A696AA08AC00EF212110E696E020EE0
:10196000276E15EF0DF0EA6AAA0EE96EEF500EE051
:101970000F0E016E006A002EFED7012EFBD78F0ED0
:10198000006E002EFED70000EF2EF2D71AEF0DF0FA
:10199000A651A55DFDE0036AA651850FE96E000E14
:1019A0000320EA6EEFCFA9F0010EA6251F0BA66F4C
:1019B000A9C001F020EF0DF0F86AD09E078EEA6A08
:1019C000E96AB896190EAF6EA60EAC6E900EAB6EAD
:1019D0001890276A2B6A7E6B846BA56BA66B200E12
:1019E000A76FC150C00B0F09C16E070EB46E176A06
:1019F000196A1A6A236A040E246E0C0E256E9D8ADB
:101A0000C00EF212C150C00B0F09C16E070EB46EAA
:101A10009250926E270E006E002EFED700D0B4506A
:101A2000A19C7BD7A4EC05F08CD7020EA96FFA0E0F
:101A3000AA6F99D7A92FFBD7A651A55D03E0A8D718
:0E1A400001C0A7F0200EA76FEFD7FFD703005D
:020000040030CA
:0E00000022CE1E1E000781000FC00FE00F4031
:00000001FF
;PIC18F2550
;CRC=3213  CREATED="20-janv.-21 01:31"
