:10000000D9EF08F068961200046ED8CF05F0E0CF63
:1000100006F00001E9CF0CF0EACF07F0E1CF08F0DD
:10002000E2CF09F0D9CF0AF0DACF0BF0F3CF12F01C
:10003000F4CF13F0FACF14F000C00EF001C00FF0AF
:1000400002C010F003C011F0A0AA2AEF00F0A1BA7C
:10005000FEEF07F00EC000F00FC001F010C002F07C
:1000600011C003F00CC0E9FF07C0EAFF078E08C00B
:10007000E1FF09C0E2FF0AC0D9FF0BC0DAFF12C0DE
:10008000F3FF13C0F4FF14C0FAFF045006C0E0FFF2
:1000900005C0D8FF1000F76AA60FF66E000EF72213
:1000A0000900F5501200000302FFFFFFFFFFFFFFF2
:1000B000FFFFFFFFFFFFF76AC60FF66E000EF72285
:1000C0000900F550120000FF02FFFFFFFFFFFFFFD6
:1000D000FFFFFFFFFFFFF76AE60FF66E000EF72245
:1000E0000900F550120040000B0040000000000025
:1000F0000000000000000000000000000000000000
:1001000000000000000007AE03D0F2CF0DF0F29E19
:10011000F76A280FF66E010EF7220900F55007AEB8
:1001200002D00DBEF28E1200400000004000000020
:1001300000000000000000000000000000000000BF
:100140000000000000000000F76A580FF66E010E74
:10015000F7220900F5501200090243000201008055
:10016000320904000001020201000524001001040C
:10017000240202052406000105240100010705816F
:10018000030B00FA09040100020A0000000705023F
:10019000024000010705820240000100F76AAC0F2F
:1001A000F66E010EF7220900F55012000200F76A00
:1001B000BE0FF66E010EF7220900F550120012175D
:1001C0001B20FFFFFFFFF76AD60FF66E010EF72226
:1001D0000900F55012001201100102000040052430
:1001E0000B00000101020001F76AF80FF66E010E24
:1001F000F7220900F5501200040309040803430024
:1002000043005300200343004300530020005500E7
:1002100053004200200074006F0020005500410090
:10022000520054006D92699468A402D06894FCD77F
:100230000AEF08F0400E0401016F040E036F180E60
:10024000026F880E006F046B040E076F580E066F66
:100250000001120070A002D0EDDF7090689A11EFDB
:1002600008F06A6A689216EF08F0AA91A9BFAA81FD
:10027000A99FA951100803E2000E016E20D0AAA187
:1002800010D0036AA951F2CFABF0F29E04DFABBFEE
:10029000F28EFF0802E1000E01D0010E016E0FD0B8
:1002A0000ED0036AA951F2CFABF0F29E04DFABBFD0
:1002B000F28EFF0802E1000E01D0010E016E120065
:1002C000AE51B003F3CF01F0F4CF00F0B103F3501F
:1002D0000026AF51B003F3500020026E1200036AF3
:1002E000A851700FE96E0F0E0320EA6EEF6AA8C0E6
:1002F000A9F0BBDF015222E0AF6BA8C0AEF0B16B3A
:10030000080EB06FDDDF01C0E9FF040E0224EA6EC3
:10031000EF6AAF6BA8C0AEF0B16B080EB06FD0DF64
:1003200002C0AAF001C0A9F0040EA927000EAA235A
:10033000A9C0E9FF040EAA25EA6EEF6A1200010EB9
:10034000A76FA7510F0805E3A7C0A8F0C8DFA72B28
:10035000F8D71200A16BA06B250E9F6F800E9E6FC9
:10036000EA6A320EE96EE26A9E0EE16E020E016EDC
:10037000E6CFEEFF012EFCD7346A356A9E6BEA6A3F
:10038000360EE96EE26A9E0EE16EE6CFEEFF9E6BE0
:10039000EA6A370EE96EE26A9E0EE16EE6CFEEFF84
:1003A000080E9E6FEA6A380EE96EE26A9E0EE16EF2
:1003B000E6CFEEFF836B17923A6A396A826B25901B
:1003C000846B12002F6A2E6A9D6B9D5101080AE30F
:1003D000036A9D51300FE96E000E0320EA6EEF6A4A
:1003E0009D2BF3D7B7DF1F6A010E206E1E6A120025
:1003F0006A6A686A9F0E6B6E3D0E696E6E6A9FDF59
:10040000E1DF160E706E68A602D0FCDDFCD76D9899
:1004100011DF030E296E1BEF08F0698468986D8266
:1004200020EF08F0689C25EF08F0A2C02AF0120027
:100430002A681200A06B2E502F103CE0A0513F08FC
:1004400039E3215005E0020A0EE0010A17E020D04E
:100450002DC003F02C50F2CFA2F0F29E75DEA2BFA9
:10046000F28EA16F15D02DC003F02C50F2CFA2F068
:10047000F29EBADEA2BFF28EA16F0AD02DC003F0A9
:100480002C50F2CFA2F0F29E9EDEA2BFF28EA16FA0
:100490002C2AD8B42D2A2E50D8B42F062E06A051BF
:1004A000A02B580FE96E040EEA6ED8B0EA2AA1C05C
:1004B000EFFFC1D72E502F1004E1A051400801E0FA
:1004C0001E6AA0C0A2F0B1DF12002D6A2C6A216A58
:1004D00004011B51010A000107E0030A0BE0010AB5
:1004E0000DE0220A27E049D02F6A120E2E6E030E6D
:1004F000216E45D02F6A430E2E6E41D0020E216E22
:10050000036A04011A51220FE96E000E0320EA6EFD
:100510002D6AEFCF2CF02DC003F02C50F2CF9FF0BE
:10052000F29E000161DE9FBFF28E036A2E6E03C051
:100530002FF025D0036A04011A51F2CF9FF0F29EEA
:10054000000135DE9FBFF28E036A2C6E03C02DF0D2
:100550002C3C02D02D520FE02DC003F02C50F2CFD6
:100560009FF0F29EF1DD9FBFF28E036A2E6E03C0F4
:100570002FF005D002D05CDF11D05ADF0FD004017C
:100580001F5308E12F5203E12E501E5D03E22F6A34
:100590001EC42EF0010E1E6E00014CDF14EF04F09D
:1005A0009F5304E1040E296ECADEE9D0050E296EC0
:1005B000040EA26F980EA16F010EA06FA0510F083C
:1005C000D8A0DDD0A0C0A8F08ADEA36B036AA0513A
:1005D000F2CFA7F0F29E6FDDA7BFF28EFF0865E0B5
:1005E000040EA36FD890A035036AF2CFA7F0F29E55
:1005F0008ADD0900F5CF03F0A7BFF28EA46F03C018
:10060000A5F0AF6BA0C0AEF0B16B080EB06F58DEB6
:1006100001C0A7F0010E0124016E000E0220036E3E
:1006200001C0E9FF040E0324EA6EA4C0EFFFAF6B24
:10063000A0C0AEF0B16B080EB06F42DE01C0A7F0F3
:10064000020E0124016E000E0220036E01C0E9FFBC
:10065000040E0324EA6EA2C0ECFFED52A1C0EFFF2E
:10066000D890A035036AF2CFA7F0F29E4CDD0900C6
:10067000F5CF03F0A7BFF28EA1270350A223880E67
:10068000A66FA5A101D0A681A5A301D0A683AF6BBB
:10069000A0C0AEF0B16B080EB06F12DE01C0E9FF72
:1006A000040E0224EA6EA6C0EFFF036AA051F2CF47
:1006B000A7F0F29EF0DCA7BFF28EFF0845E0A3830F
:1006C000AF6BA0C0AEF0B16B080EB06FF9DD02C029
:1006D000A8F001C0A7F0040EA727000EA823020E61
:1006E000A725016E000EA821036E01C0E9FF040ECC
:1006F0000324EA6EA2C0ECFFED52A1C0EFFFD89038
:10070000A035036AF2CFA7F0F29EE5DC0900F5CF31
:1007100003F0A7BFF28EA1270350A223AF6BA0C0A6
:10072000AEF0B16B080EB06FCBDD02C0A8F001C017
:10073000A7F0040EA727000EA823A7C0E9FF040E08
:10074000A825EA6E400EEF6EA351060802E10E0ED8
:10075000A36F036AA051F2CFA7F0F29E9CDCA7BF63
:10076000F28E010801E0A389036AA051700FE96EBF
:100770000F0E0320EA6EA3C0EFFFA02B1FD70EEFD2
:1007800004F004011951000A00010DE0010A14E00F
:10079000020A1FE0060A29E0030A2EE00E0A2EE0F4
:1007A000010A32E040D020C058F40401596B020E17
:1007B0000001A26F3ADE38D004011A2D07D0010ED5
:1007C00020160001A26B31DE03D00401000130DEEF
:1007D0002BD004011A2D06D020820001A26B25DE49
:1007E00003D00401000124DE1FD0020E1E6E1AC4C5
:1007F0002BF0A26B1ADE18D068D616D01FC058F4A2
:10080000010EA26F12DE10D004011A51010809E393
:100810001AC41FF01AC49FF00001C2D6A26B05DEF5
:100820000401000101D004DE89EF05F01FC09FF034
:1008300004011951000A000105E00A0A0BE0010A4F
:100840002BE03CD00401586B596B020E0001A26FE3
:10085000ECDD35D09F531EE0010E9F5D036AF2CFA1
:10086000A0F0F29E9BDCA0BFF28E016E04011C5D25
:10087000D8A002D000010ED0036A1C51300FE96EDF
:10088000000E0320EA6EEFCF58F4010E0001A26FB4
:10089000CCDD01D0CDDD13D09F530EE0036A0401FF
:1008A0001C51300FE96E000E0320EA6E1AC4EFFFF0
:1008B0000001A26BBADD01D0BBDD01D0B9DD89EF4B
:1008C00005F0A0919FBFA0819F9FA0A117D0AF6B03
:1008D0009FC0AEF0B16B080EB06FF2DC02C0A2F0A8
:1008E00001C0A1F0040EA127000EA223A1C0E9FFC0
:1008F000040EA225EA6E880EEF6E0DD0AF6B9FC07E
:10090000AEF0B16B080EB06FDBDC01C0E9FF040E86
:100910000224EA6EEF6A01EF05F0A0919FBFA0816B
:100920009F9FA0A117D0AF6B9FC0AEF0B16B080E18
:10093000B06FC6DC02C0A2F001C0A1F0040EA12776
:10094000000EA223A1C0E9FF040EA225EA6E840EC8
:10095000EF6E0ED0AF6B9FC0AEF0B16B080EB06FF4
:10096000AFDC01C0E9FF040E0224EA6E840EEF6ED4
:1009700007EF05F0A0919FBFA0819F9FA0A117D076
:10098000AF6B9FC0AEF0B16B080EB06F99DC02C0C8
:10099000A3F001C0A2F0040EA227000EA323A2C060
:1009A000E9FF040EA325EA6EEFCFA1F00ED0AF6BE6
:1009B0009FC0AEF0B16B080EB06F82DC01C0E9FFE2
:1009C000040E0224EA6EEFCFA1F0A1AF02D0A1B5D0
:1009D00002D0000E01D0010E016E11EF05F01CC413
:1009E000A9F043DC015228E004011951010A000179
:1009F00005E0020A09E0030A0DE01DD01CC49FF0C7
:100A000060D7A26B12DD18D01CC49FF086D7A26BF2
:100A10000CDD12D00401586B596B1CC49FF000010F
:100A2000A9D7015204E0010E0401586F0001020E23
:100A3000A26FFBDC01D0FCDC89EF05F0FE0E2A6E14
:100A4000120004011C2D01D002D01C5348E11951A1
:100A5000000A00010BE0010A0DE0210A1CE0010A76
:100A60001FE0030A2EE0010A31E037D0010E846F47
:100A7000E5DF34D0040EEA6E580EE96EE26A3B0EF2
:100A8000E16E080E016EE6CFEEFF012EFCD71EC40C
:100A9000A2F0CBDC23D0020E846F1782CFDF1ED0F2
:100AA000040EEA6E580EE96EE26A320EE16E070E2F
:100AB000016EE6CFEEFF012EFCD7070EA26FB5DC6C
:100AC0000DD01AC483F0A26BB0DC08D01AC43AF07F
:100AD0001BC439F0A26BA9DC01D0AADC040100011F
:100AE00089EF05F01E6A040118517F0B000A00010E
:100AF00007E0010A07E0030A07E0230A07E008D03D
:100B000040D607D093D605D06AD703D09AD701D064
:100B10008FDCB4EF07F0AF6BA0C0AEF0B16B080E86
:100B2000B06F60EC01F001C0E9FF040E0224EA6E30
:100B3000EFCFA2F0A151020806E1A2AD02D0A16B55
:100B400002D0010EA16FA15103081AE1840EA26F19
:100B5000AF6BA0C0AEF0B16B080EB06F60EC01F0EF
:100B600002C0A6F001C0A5F0040EA527000EA62322
:100B7000A5C0E9FF040EA625EA6E840EEF6E07D02D
:100B8000A12D03D0C80EA26F02D0880EA26FD890FC
:100B9000A035036AF2CFA5F0F29E83EC00F00900C5
:100BA000F5CF03F0A5BFF28EA36F03C0A4F0AF6B27
:100BB000A0C0AEF0B16B080EB06F60EC01F001C0E8
:100BC000A5F0010E0124016E000E0220036E01C08B
:100BD000E9FF040E0324EA6EA3C0EFFFA4A101D035
:100BE000A281A4A301D0A283AF6BA0C0AEF0B16B71
:100BF000080EB06F60EC01F001C0E9FF040E0224A2
:100C0000EA6EA2C0EFFF1200036AAD51700FE96EE9
:100C10000F0E0320EA6EEF5219E0AF6BADC0AEF0DD
:100C2000B16B080EB06F60EC01F002C0AFF001C014
:100C3000AEF0040EAE27000EAF23AEC0E9FF040EE7
:100C4000AF25EA6EEFCFB0F0B0AF02D0000E01D00A
:100C5000010E016E1200A8C0ADF0D6DF0152D8B46B
:100C60007DD0AF6BA8C0AEF0B16B080EB06F60EC7A
:100C700001F002C0AEF001C0ADF0040EAD27000ED1
:100C8000AE23010EAD25016E000EAE21036E01C034
:100C9000E9FF040E0324EA6EA9C0EFFFAB5102087E
:100CA0001EE1AF6BA8C0AEF0B16B080EB06F60EC88
:100CB00001F002C0AEF001C0ADF0040EAD27000E91
:100CC000AE23ADC0E9FF040EAE25EA6EEFCFACF067
:100CD000ACAD02D0AB6B02D0010EAB6F18D0AB51F4
:100CE000040815E1AF6BA8C0AEF0B16B080EB06F91
:100CF00060EC01F001C0E9FF040E0224EA6EEFCFC0
:100D0000ACF0ACAD03D0010EAB6F01D0AB6BAB2D33
:100D100003D0C80EAC6F02D0880EAC6FAAA101D070
:100D2000AC81AAA301D0AC83AF6BA8C0AEF0B16B0D
:100D3000080EB06F60EC01F002C0AEF001C0ADF083
:100D4000040EAD27000EAE23ADC0E9FF040EAE25A4
:100D5000EA6EACC0EFFF010E016E02D0000E016E14
:100D600012008451010A03E0030A13E024D0EA6A66
:100D70003B0EE96E040EE26E180EE16E080E016E77
:100D8000E6CFEEFF012EFCD7A26B15EC02F0846BD0
:100D900013D0EA6A320EE96E040EE26E180EE16EAE
:100DA000070E016EE6CFEEFF012EFCD7846BA26B1F
:100DB00015EC02F001D0846B11EF07F0AF6BA0C00F
:100DC000AEF0B16B080EB06F60EC01F002C0A2F0A3
:100DD00001C0A1F0010E0124016E000E0220036E7D
:100DE00001C0E9FF040E0324EA6E036AEFCF01F0AD
:100DF00003C002F007EF07F02590020EA06FA16F6D
:100E00008ADE12002580276A020EA06FD7D701C0A4
:100E100026F0265201E1F0DF16EF07F09F5302E1C2
:100E2000A0D704D09F51020801E1ECD71200A0C066
:100E30006EFFA05303E0040E296E02D0020E296E4D
:100E400027EF07F01F6A1E6A2BC0A0F0F0D793EFC0
:100E500007F0A0C0ADF0D8DE015243E0AF6BA0C0F8
:100E6000AEF0B16B080EB06F60EC01F002C0A9F0FB
:100E700001C0A8F0040EA827000EA923020EA82581
:100E8000016E000EA921036E01C0E9FF040E0324C8
:100E9000EA6EECCFA7F0ED52EFCFA6F0A7C0EAFFC5
:100EA000A6C0E9FFA2C0E2FFA1C0E1FFA4C002F01A
:100EB000A3C001F0015202E0022A02D0025206E071
:100EC000E6CFEEFF012EFCD7022EFAD7A0C0A8F085
:100ED000A4C0AAF0A3C0A9F0A5C0ABF0BCDE01502D
:100EE00002D0000E016E120082530EE0020EA06FBF
:100EF000A26B430EA16FA46B82C0A3F0020EA56F7C
:100F0000A8DF015201E0826B1200EEDF98EF07F0DC
:100F10009F530AE11E2C03D01AEC02F004D01E509D
:100F20000208D8B48FD704D09F51020801E1EDD751
:100F3000120028309D6F9D339D331F0E9D17285240
:100F400041E1040100513C0B00019E6F430E04017E
:100F5000001700019E5134081EE104010451800B6A
:100F600001E0046B0001BED56D982A3C05D0A06B52
:100F7000030EA16FD0DD0ED0A06B020EA16FCBDDF2
:100F80002A50FE0807E0A86BAA6B2AC0A9F0040E3D
:100F9000AB6F61DE16D09E51040813E19F6B3EDFFC
:100FA000A06B020EA16FB7DD2A50FE080AE02A3CB2
:100FB00001D007D0A86BAA6B2AC0A9F0010EAB6FB5
:100FC0004ADE1AD0285004080EE12A689F6BA0DF81
:100FD0002A3C01D007D0A86BAA6B2AC0A9F0020E48
:100FE000AB6F39DE09D028B404D09DC09FF016DF66
:100FF00003D09DC09FF08CDF2FEF08F0A19A2952FB
:10100000D8B433D06852D8B430D068A403D069B40F
:1010100012EF01F06DB229D068AA03D069BA2AEFA5
:1010200001F068A203D069B231EF01F068A003D0EB
:1010300069B0F8EF01F068A803D069B80DEF02F0CD
:1010400068AC03D069BC12EF02F09C6B68A608D0B4
:1010500069A606D06CCF28F002EC00F06AD701D068
:1010600004D09C519C2B0308F1E22AEF00F0486564
:101070006C6C6F20576F726C640A0D006D6A696A40
:10108000080E6F6E94503009946E296A166AF2BE8B
:10109000168EF29EE2EC01F016BEF28E1200EEDF2A
:1010A000FAEF08F0166AF2BE168EF29EE2EC01F03C
:1010B00016BEF28E6D6A140E6F6E696A6D86010E31
:1010C000296E69EF08F0938481A404D06DB601D035
:1010D000E9D703D06DA601D0D1DF292C0BD06DBA92
:1010E00009D0686A696AA08AC00EF212110E696E90
:1010F000020E296E06EF09F01F50016E07EF09F08E
:101100008A91A0BA8A81A09A82513E0802E23E0EDC
:10111000826F8251822B036A430FE96E000E032017
:10112000EA6E89C0EFFF8AA101D0A08A9BEF08F088
:1011300088C089F0E5D7166AF2BE168EF29ED4DE1C
:1011400016BEF28EACEF08F03F0ED880825501E15A
:10115000FBD787C088F0ECD712000900F5520CE0ED
:10116000F6CF85F0F7CF86F0F5CF87F0EDDF85C0BD
:10117000F6FF86C0F7FFF1D712EF09F025B001D0D6
:10118000FDD72750272AA30FE96E040EEA6ED8B0C8
:10119000EA2AEFCF85F02650275C07E3166AF2BEF5
:1011A000168EF29E29DE16BEF28E85C001F016EF75
:1011B00009F0F86AD09E078E1790C150C00B0F0936
:1011C000C16E070EB46E186A196A226A040E236E85
:1011D0000C0E246EC150C00B0F09C16E070EB46E09
:1011E0009250926E270E006E002EFED700D0B450A3
:1011F000A19C55D7166AF2BE168EF29EAAEC01F09B
:1012000016BEF28E938481A420D05DD775D701528B
:101210001BE083A119D017B006D06E0EF66E100E2B
:10122000F76E9BD7178025A00FD0A8D70150856FE8
:10123000600806E285517A0803E38551DF0B01D08F
:101240008551856F876F80DF09D01790166AF2BECF
:10125000168EF29EAAEC01F016BEF28ED3D70300D2
:020000040030CA
:0E00000021CE3E1E000581000FC00FE00F4014
:00000001FF
;PIC18F2550
;CRC=8A2C  CREATED="22-févr.-21 22:11"
