:020000040000FA
:0408000049EF07F0C5
:08080800F76A180FF66E080EE6
:10081000F7220900F5501200280C010644696D2DDD
:1008200000004C756E2D00004D61722D00004D656D
:10083000722D00004A65752D000056656E2D000072
:1008400053616D2D0000EA6A0E0EE96EEF500EE066
:100850000F0E016E006A002EFED7012EFBD78F0E01
:10086000006E002EFED70000EF2EF2D7000C15B060
:1008700002D08C9801D08C88959815B202D08C9AB1
:1008800001D08C8A959A15B402D08C9C01D08C8CA6
:10089000959C15B602D08C9E01D08C8E959E000042
:1008A0008D849694070E006E002EFED700D08D9496
:1008B0009694000C166A9588000E83B8010E1612E5
:1008C000958A000E83BA010E006ED8900036005053
:1008D0001612958C000E83BC010E006E0036003699
:1008E000FC0E001600501612958E000E83BE010EEF
:1008F000006E003600360036F80E00160050161254
:1009000016C001F0000C9588958A958C958E8D8285
:10091000969200008D8496940000CCDF01C015F003
:100920008D94969400008D849694030E006E002E94
:10093000FED700D0BFDF01C014F08D949694959837
:10094000959A959C959E1538006EF00E00160050F5
:100950001410016EAFEF04F08D909690D4D701C0C3
:1009600014F001BEFBD7125202E18D9001D08D80B0
:10097000969000008D92969200008D949694133874
:10098000146E0F0E141614C015F071DF13500F0BF8
:10099000146E156E6CDF000C9598959A959C959E3B
:1009A0009694969096928D9096908D9296928D9424
:1009B00096940F0E0E6E47DF010E0B6E0B50030860
:1009C00008E3030E156E53DF050E0E6E3CDF0B2A97
:1009D000F5D7020E156E4BDF0B6A0B5003080EE3C2
:1009E000036A0B50F2CF0CF0F29E0EDF0CBEF28EBB
:1009F0000C6E126A136EB0DF0B2AEFD763EF06F0AE
:100A00000F2C01D003D0400E106E01D0106A010EE1
:100A10000E5C102610508009116E126A136E9CDF56
:100A2000000C080E016E020E006E002EFED78C9098
:100A30009590020E006E002EFED715368B94D8B01E
:100A40009484D8A09494958083A0FED7012EEBD7F0
:100A5000020E006E002EFED78C90959000009484BC
:100A6000020E006E002EFED7020E006E002EFED784
:100A7000958083A0FED7016A020E006E002EFED77D
:100A800082B401808C9095908B949494000C080E05
:100A90000F6E00C010F09484020E006E002EFED780
:100AA000958083A0FED782B4D88082A4D8900136E6
:100AB000020E006E002EFED795908C900F2EEBD775
:100AC0009484020E006E002EFED78B941050D8A492
:100AD00094940000958083A0FED7020E006E002E35
:100AE000FED78C909590020E006E002EFED78B9450
:100AF0009494ACEF05F09484020E006E002EFED7A5
:100B00009580020E006E002EFED78B949494020EF8
:100B1000006E002EFED78C909590D00E156E81DF62
:100B20000CC015F07EDF9484020E006E002EFED7FE
:100B30009580020E006E002EFED783A0FED78B9408
:100B40009494020E006E002EFED78C909590D10EDC
:100B5000156E67DF006A9BD701C00DF0949400000A
:100B6000958083A0FED7020E006E002EFED700D027
:100B700000009484020E006E002EFED70DC001F01E
:100B8000000C9484020E006E002EFED79580020E9B
:100B9000006E002EFED78B949494020E006E002EF1
:100BA000FED78C909590D00E156E3BDF13C015F0DC
:100BB00038DF14C015F035DF94940000958083A0D1
:100BC000FED7020E006E002EFED700D000009484E7
:100BD000020E006E002EFED7000C020E0C6E8BDF94
:100BE00001C00BF00B9C020E136E0BC014F0C9DF9A
:100BF0000C6A81DF01C00BF00B9E136A0BC014F06E
:100C0000C0DF68EF06F00D507F0B126E136A146E92
:100C1000B8DF0C507F0B126E010E136E12C014F071
:100C2000B0DF0B507F0B126E020E136E12C014F069
:100C3000A8DF1150070B126E030E136E12C014F0D2
:100C4000A0DF0E503F0B126E040E136E12C014F094
:100C500098DF0F501F0B126E050E136E12C014F0AA
:100C600090DF060E136E10C014F08BDF7BEF06F0E2
:100C70000C6A41DF01507F0B046E010E0C6E3BDFEE
:100C800001507F0B056E020E0C6E35DF01507F0B9D
:100C9000066E030E0C6E2FDF0150070B0A6E040E5A
:100CA0000C6E29DF01503F0B076E050E0C6E23DF23
:100CB00001501F0B086E060E0C6E1DDF01C009F0FF
:100CC0007CEF06F069D6010E0E6E0F6E99DE85D7A9
:100CD000126A010E136E40DE230E0B6E560E0C6E62
:100CE000500E0D6E250E0E6E100E0F6E200E106E35
:100CF000190E116E88D7BCD754EF07F00D500C0AAF
:100D000005E0060A0BE0020A0FE013D0126A010E9A
:100D1000136E22DE020E0E6E96DD11D0010E0E6EE7
:100D2000020E0F6E6DDE0BD0126A100E136E14DE03
:100D300006D0010E126E0DC013F00EDE00D0000CB6
:100D40000CBE0FD00F0E006E0B3800160A0E005CA2
:100D500003E2300E002602D00C50002600C00DF039
:100D6000CDDF0F0E0B160A0E0B5C02E2300E02D026
:100D70000C9E0C500B260BC00DF0C0DF000C0900C0
:100D8000F5520CE0F6CF0BF0F7CF0CF0F5CF0DF0ED
:100D9000B5DF0BC0F6FF0CC0F7FFF1D7000C010E5A
:100DA0000E6E0F6E2DDE06C00BF0570E0C6EC8DFF8
:100DB0003A0E0D6EA3DF05C00BF0570E0C6EC0DFB0
:100DC0003A0E0D6E9BDF04C00BF0570E0C6EB8DFB1
:100DD000010E0E6E020E0F6E13DE010E0A5CF90F8D
:100DE0002DE2070F35EF07F01C0EF66E080EF76EBA
:100DF000C6DF24D0220EF66E080EF76EC0DF1ED0BE
:100E0000280EF66E080EF76EBADF18D02E0EF66EAC
:100E1000080EF76EB4DF12D0340EF66E080EF76EC1
:100E2000AEDF0CD03A0EF66E080EF76EA8DF06D0D5
:100E3000400EF66E080EF76EA2DF00D007C00BF072
:100E4000570E0C6E7DDF2D0E0D6E58DF08C00BF0B7
:100E5000570E0C6E75DF2D0E0D6E50DF09C00BF0B6
:100E6000570E0C6E6DDF55EF07F0E824F76AF73682
:100E7000850FF66E0E0EF7220A00F550FA6E080086
:100E8000F550F96EE80DF40D000E0C0E180E240E40
:100E9000300EF86AD09EEA6AE96AC150C00B0F09A9
:0E0EA000C16E070EB46E0ED77AD7FED70300D0
:020000040030CA
:0E00000024CE381E000781000FC00FE00F4015
:00000001FF
;PIC18F4550
;CRC=F257  CREATED="25-oct.-20 23:56"
