:0408000044EF08F0C9
:08080800F76A180FF66E080EE6
:10081000F7220900F5501200280C01064300EA6A8D
:100820001F0EE96EEF500EE00F0E016E006A002EF3
:10083000FED7012EFBD78F0E006E002EFED70000D4
:10084000EF2EF2D7000C26B002D08C9801D08C8805
:10085000959826B202D08C9A01D08C8A959A26B4AB
:1008600002D08C9C01D08C8C959C26B602D08C9E9C
:1008700001D08C8E959E00008D849694070E006E9C
:10088000002EFED700D08D949694000C276A958890
:10089000000E83B8010E2712958A000E83BA010E4E
:1008A000006ED890003600502712958C000E83BC45
:1008B000010E006E00360036FC0E001600502712A6
:1008C000958E000E83BE010E006E00360036003697
:1008D000F80E00160050271227C001F0000C958872
:1008E000958A958C958E8D82969200008D84969433
:1008F0000000CCDF01C026F08D94969400008D841A
:100900009694030E006E002EFED700D0BFDF01C00C
:1009100025F08D9496949598959A959C959E263859
:10092000006EF00E001600502510016E9BEF04F0D3
:100930008D909690D4D701C025F001BEFBD72352ED
:1009400002E18D9001D08D80969000008D9296925C
:1009500000008D9496942438256E0F0E251625C020
:1009600026F071DF24500F0B256E266E6CDF000C15
:100970009598959A959C959E9694969096928D9022
:1009800096908D9296928D9496940F0E1F6E47DFDF
:10099000010E116E1150030808E3030E266E53DF9B
:1009A000050E1F6E3CDF112AF5D7020E266E4BDFB7
:1009B000116A115003080EE3036A1150F2CF12F0CE
:1009C000F29E22DF12BEF28E126E236A246EB0DF18
:1009D000112AEFD7FEEF04F0202C01D003D0400EF7
:1009E000216E01D0216A010E1F5C21262150800951
:1009F000226E236A246E9CDF000CBAD7010E1F6E94
:100A0000206EEADF236A010E246E92DF58EF08F0B1
:100A1000010E1D5E0CE3EA6A1D0EE96EEF5007E061
:100A2000020E006E002EFED700D0EF2EF9D7000C7C
:100A300094928B92020E186EFA0E1D6EE9DF182E3C
:100A4000FBD79482500E1D6EE3DF020E186EFA0E75
:100A50001D6EDEDF182EFBD79482176A82B2172A2A
:100A600017C001F0000C94928B92070E006E002EBE
:100A7000FED700D01A5202E18B9201D08B82949261
:100A8000500E1D6EC5DF948258EF05F0186A18509D
:100A9000070810E317C000F01850016E04E0D8906A
:100AA0000032012EFCD7000E00B0010E1A6EDBD70B
:100AB000182AEDD7000C1C9094928B92070E006EB2
:100AC000002EFED700D09482130E006E002EFED7AB
:100AD00000D094821C9082B21C80780E1D6E98DF2C
:100AE000000E1CB0010E016E7CEF05F01A6A196A47
:100AF0001950070812E3DFD701C01BF01B2C0BD0E5
:100B0000010E006E1950016E04E0D8900036012EDF
:100B1000FCD700501A12192AEBD71AC001F079EF4E
:100B200006F0006A016A1750D89018B0002600320B
:100B3000013218B200260032013218B40026003209
:100B4000013218B600260032013218B800260032F1
:100B5000013218BA00260032013218BC00260032D9
:100B6000013218BE00260032013292EF06F0175013
:100B70001902F3CF01F0F4CF00F01A02F35000266F
:100B800018501902F3500020026E9BEF06F08E0EF3
:100B9000006E18C001F017C002F0036A015209E1AB
:100BA00002C001F0026A080E005E015202E1006A12
:100BB00008D0D89001BE04D0023601360006F9D71D
:100BC000019EA7EF06F01E50D8B471D0006E2250DF
:100BD000D8B46DD0002604E3810E002668E204D06C
:100BE0007F0E005E64E363E01FC026F02350261AE8
:100BF0001F8E238E21502502F4CF28F0205024028E
:100C0000F4CF03F0F3CF27F02502F3502826F45059
:100C10002722000E032221502402F3502826F450EC
:100C20002722000E026A032202221F502502F350DF
:100C30002726F4500322000E02221F502402F350F4
:100C40000326F4500222000E016A012221502302E1
:100C5000F3502726F4500322000E022201222050D6
:100C60002302F3500326F4500222000E01221F50EB
:100C70002302F3500226F4500122002A01BE05D0BF
:100C800027360336023601360006000E27AE0AD09C
:100C9000032A02220122015005E1025003E1035020
:100CA00001E1002A26BE018E26AE019E04D0006A14
:100CB000016A026A036A000CBBDECC0E176EE6DE28
:100CC000440E176EE3DEB4DECC0E176EDFDEBE0E12
:100CD000176EDCDE116A1150080813E3036A115025
:100CE000040F016E000E032201C017F003C018F0BC
:100CF000FDD618C0EAFF17C0E9FF01C0EFFF112AB7
:100D0000EAD705C012F0055080080EE2125202E048
:100D1000000E01D0010E010F126E12C017F0FF0E6F
:100D2000186EFFD601C012F0186A12C017F0010E3B
:100D30001A6E196A1CD701C017F004500124016E05
:100D4000000E0220036E01C017F0186E20D703C0FA
:100D500016F002C015F001C014F000C013F016C068
:100D600021F015C020F014C01FF013C01EF0256A3A
:100D7000246A236A7B0E226E26DF03C016F002C0AF
:100D800015F001C014F000C013F013C000F014C03F
:100D900001F015C002F016C003F025EF08F01E5058
:100DA000B6081E6E036A1FC022F01F8ED8901F3235
:100DB0002032213203320232013200321E2EF6D7A7
:100DC00022AE0BD0001E011E021E031E002AD8B444
:100DD000012AD8B4022AD8B4032A75EF07F0006AB2
:100DE000016A026A036A266A276A286A296A255004
:100DF0002410231022102CE0200E2A6ED8901E36CC
:100E00001F362036213626362736283629362550F5
:100E1000295C08E12450285C05E12350275C02E1AD
:100E20002250265C0FE32250265E2350D8A0233C9C
:100E3000275E2450D8A0243C285E2550D8A0253C0D
:100E4000295ED88000360136023603362A2ED6D7E0
:100E5000EA6A260EE96E000C1E500C0A05E0060A2E
:100E60000BE0020A0FE013D0236A010E246E60DD4E
:100E7000020E1F6ED4DC11D0010E1F6E020E206E0A
:100E8000ABDD0BD0236A100E246E52DD06D0010EAE
:100E9000236E1EC024F04CDD00D0000CE950166E0D
:100EA0001550186E19E014C021F013C020F012C0C4
:100EB0001FF011C01EF0256A246A200E236E820ED8
:100EC000226E81DE03C014F002C013F001C012F0E4
:100ED00000C011F0182EE7D714C021F013C020F085
:100EE00012C01FF011C01EF05AD703C014F002C088
:100EF00013F001C012F000C011F014AE0DD01606B0
:100F0000168A111E121E131E141E112AD8B4122A7C
:100F1000D8B4132AD8B4142A3B0E1D6E9A0E1C6E38
:100F2000CA0E1B6E1A6A0A0E186E1550D8B4162A0D
:100F300014C021F013C020F012C01FF011C01EF029
:100F40001DC025F01CC024F01BC023F01AC022F0E5
:100F500046DF0150EFCF11F0ECCF12F0ECCF13F0E1
:100F6000ECCF14F000520FE11528185C0CE016507D
:100F70000CE00F0B185C01E037E216BE35D016BC52
:100F800004D0200E2DD0200E161616AA0CD0169ABC
:100F90001550D8A416060050166E2D0E1E6E5CDF7E
:100FA0001650006E166A1550185C0AE10050166E55
:100FB0002E0E1E6E51DF1650006E200E1616000EFD
:100FC000300E16AA0DD0169A1550D8A41606005049
:100FD000166E2D0E1E6E40DF1650006E166A300E15
:100FE000002600C01EF038DF1DC021F01CC020F01C
:100FF0001BC01FF01AC01EF0256A246A236A0A0E5D
:10100000226EEDDE03C01DF002C01CF001C01BF01B
:1010100000C01AF0182E8CD73AEF08F00900F552EC
:101020000CE0F6CF11F0F7CF12F0F5CF1EF014DF81
:1010300011C0F6FF12C0F7FFF1D742EF08F00A0E19
:101040001F6E010E206EC8DC37D603C010F002C040
:101050000FF001C00EF000C00DF0020EE96E10C0DE
:1010600014F00FC013F00EC012F00DC011F0010EFD
:10107000156E14D7DF0E1E6EEFDE1C0EF66E080E18
:10108000F76ECCD759EF08F0F86AD09EEA6AE96AA1
:10109000C150C00B0F09C16E070EB46E046A056A19
:1010A000066A076A086A096A0A6A0B6A0C6AA5D4A2
:0610B000C6D7FED70300C5
:020000040030CA
:0E00000024CE381E000781000FC00FE00F4015
:00000001FF
;PIC18F4550
;CRC=65D2  CREATED="25-oct.-20 23:23"
