:100000000BEF09F068961200046ED8CF05F0E0CF30
:1000100006F00001E9CF0CF0EACF07F0E1CF08F0DD
:10002000E2CF09F0D9CF0AF0DACF0BF0F3CF12F01C
:10003000F4CF13F0FACF14F000C00EF001C00FF0AF
:1000400002C010F003C011F09DAA2AEF00F09EBA82
:1000500049EF08F0A0AA30EF00F0A1BA04EF08F0D1
:100060000EC000F00FC001F010C002F011C003F08C
:100070000CC0E9FF07C0EAFF078E08C0E1FF09C016
:10008000E2FF0AC0D9FF0BC0DAFF12C0F3FF13C0B2
:10009000F4FF14C0FAFF045006C0E0FF05C0D8FF0B
:1000A0001000F76AB20FF66E000EF7220900F55045
:1000B0001200000302FFFFFFFFFFFFFFFFFFFFFF34
:1000C000FFFFF76AD20FF66E000EF7220900F55017
:1000D000120000FF02FFFFFFFFFFFFFFFFFFFFFF18
:1000E000FFFFF76AF20FF66E000EF7220900F550D7
:1000F000120040000B004000000000000000000063
:1001000000000000000000000000000000000000EF
:10011000000007AE03D0F2CF0DF0F29EF76A340F65
:10012000F66E010EF7220900F55007AE02D00DBEA3
:10013000F28E1200400000004000000000000000AD
:1001400000000000000000000000000000000000AF
:1001500000000000F76A640FF66E010EF722090036
:10016000F550120009024300020100803209040028
:10017000000102020100052400100104240202050E
:10018000240600010524010001070581030B00FA84
:1001900009040100020A00000007050202400001F4
:1001A0000705820240000100F76AB80FF66E010EE3
:1001B000F7220900F55012000200F76ACA0FF66E26
:1001C000010EF7220900F550120012171B20FFFF45
:1001D000FFFFF76AE20FF66E010EF7220900F550F5
:1001E0001200120110010200004005240B00000162
:1001F00001020001F76A040FF66E020EF7220900F1
:10020000F55012000403090408034300430053009F
:1002100020034300430053002000550053004200D8
:10022000200074006F00200055004100520054006F
:100230006D92699468A402D06894FCD710EF08F01E
:10024000400E0401016F040E036F180E026F880E3A
:10025000006F046B040E076F580E066F000112004A
:1002600070A002D0EDDF7090689A17EF08F06A6A0C
:1002700068921CEF08F0CE91CDBFCE81CD9FCD51BD
:10028000100803E2000E016E20D0CEA110D0036A48
:10029000CD51F2CFCFF0F29E04DFCFBFF28EFF0838
:1002A00002E1000E01D0010E016E0FD00ED0036AE4
:1002B000CD51F2CFCFF0F29E04DFCFBFF28EFF0818
:1002C00002E1000E01D0010E016E1200D251D403E2
:1002D000F3CF01F0F4CF00F0D503F3500026D35153
:1002E000D403F3500020026E1200036ACC51700F49
:1002F000E96E0F0E0320EA6EEF6ACCC0CDF0BBDFD3
:10030000015222E0D36BCCC0D2F0D56B080ED46F73
:10031000DDDF01C0E9FF040E0224EA6EEF6AD36B51
:10032000CCC0D2F0D56B080ED46FD0DF02C0CEF0B7
:1003300001C0CDF0040ECD27000ECE23CDC0E9FFC5
:10034000040ECE25EA6EEF6A1200010ECB6FCB5180
:100350000F0805E3CBC0CCF0C8DFCB2BF8D71200D9
:10036000C56BC46B250EC36F800EC26FEA6A320E76
:10037000E96EE26AC20EE16E020E016EE6CFEEFF9A
:10038000012EFCD7346A356AC26BEA6A360EE96E12
:10039000E26AC20EE16EE6CFEEFFC26BEA6A370E8A
:1003A000E96EE26AC20EE16EE6CFEEFF080EC26FA2
:1003B000EA6A380EE96EE26AC20EE16EE6CFEEFF3F
:1003C000846B83913A6A396A826B2590856B12003F
:1003D0002F6A2E6AC16BC15101080AE3036AC15139
:1003E000300FE96E000E0320EA6EEF6AC12BF3D7DF
:1003F000B7DF1F6A010E206E1E6A12006A6A686A01
:100400009F0E6B6E3D0E696E6E6A9FDFE1DF160E0A
:10041000706E68A602D0F6DDFCD76D9811DF030E72
:10042000296E21EF08F0698468986D8226EF08F044
:10043000689C2BEF08F0C6C02AF012002A68120050
:10044000C46B2E502F103CE0C4513F0839E32150BB
:1004500005E0020A0EE0010A17E020D02DC003F0EB
:100460002C50F2CFC6F0F29E75DEC6BFF28EC56F7D
:1004700015D02DC003F02C50F2CFC6F0F29EBADE9C
:10048000C6BFF28EC56F0AD02DC003F02C50F2CF3C
:10049000C6F0F29E9EDEC6BFF28EC56F2C2AD8B47F
:1004A0002D2A2E50D8B42F062E06C451C42B580F17
:1004B000E96E040EEA6ED8B0EA2AC5C0EFFFC1D7D4
:1004C0002E502F1004E1C451400801E01E6AC4C040
:1004D000C6F0B1DF12002D6A2C6A216A04011B519B
:1004E000010A000107E0030A0BE0010A0DE0220AFD
:1004F00027E049D02F6A120E2E6E030E216E45D0D2
:100500002F6A430E2E6E41D0020E216E036A040143
:100510001A51220FE96E000E0320EA6E2D6AEFCF0A
:100520002CF02DC003F02C50F2CFC3F0F29E00014E
:1005300061DEC3BFF28E036A2E6E03C02FF025D09A
:10054000036A04011A51F2CFC3F0F29E000135DEB6
:10055000C3BFF28E036A2C6E03C02DF02C3C02D078
:100560002D520FE02DC003F02C50F2CFC3F0F29EBD
:10057000F1DDC3BFF28E036A2E6E03C02FF005D0EB
:1005800002D05CDF11D05ADF0FD004011F5308E105
:100590002F5203E12E501E5D03E22F6A1EC42EF07F
:1005A000010E1E6E00014CDF1AEF04F0C35304E18C
:1005B000040E296ECADEE9D0050E296E040EC66F40
:1005C000980EC56F010EC46FC4510F08D8A0DDD0BE
:1005D000C4C0CCF08ADEC76B036AC451F2CFCBF043
:1005E000F29E6FDDCBBFF28EFF0865E0040EC76F91
:1005F000D890C435036AF2CFCBF0F29E8ADD0900B1
:10060000F5CF03F0CBBFF28EC86F03C0C9F0D36B38
:10061000C4C0D2F0D56B080ED46F58DE01C0CBF049
:10062000010E0124016E000E0220036E01C0E9FFDD
:10063000040E0324EA6EC8C0EFFFD36BC4C0D2F02F
:10064000D56B080ED46F42DE01C0CBF0020E012440
:10065000016E000E0220036E01C0E9FF040E0324A8
:10066000EA6EC6C0ECFFED52C5C0EFFFD890C435AE
:10067000036AF2CFCBF0F29E4CDD0900F5CF03F018
:10068000CBBFF28EC5270350C623880ECA6FC9A1FF
:1006900001D0CA81C9A301D0CA83D36BC4C0D2F030
:1006A000D56B080ED46F12DE01C0E9FF040E0224E0
:1006B000EA6ECAC0EFFF036AC451F2CFCBF0F29EDC
:1006C000F0DCCBBFF28EFF0845E0C783D36BC4C01C
:1006D000D2F0D56B080ED46FF9DD02C0CCF001C0AA
:1006E000CBF0040ECB27000ECC23020ECB25016EDF
:1006F000000ECC21036E01C0E9FF040E0324EA6E54
:10070000C6C0ECFFED52C5C0EFFFD890C435036AF8
:10071000F2CFCBF0F29EE5DC0900F5CF03F0CBBFC2
:10072000F28EC5270350C623D36BC4C0D2F0D56B5D
:10073000080ED46FCBDD02C0CCF001C0CBF0040EAC
:10074000CB27000ECC23CBC0E9FF040ECC25EA6EEC
:10075000400EEF6EC751060802E10E0EC76F036A26
:10076000C451F2CFCBF0F29E9CDCCBBFF28E0108DD
:1007700001E0C789036AC451700FE96E0F0E0320B0
:10078000EA6EC7C0EFFFC42B1FD714EF04F00401BB
:100790001951000A00010DE0010A14E0020A1FE0ED
:1007A000060A29E0030A2EE00E0A2EE0010A32E0D2
:1007B00040D020C058F40401596B020E0001C66FEE
:1007C0003ADE38D004011A2D07D0010E20160001A0
:1007D000C66B31DE03D00401000130DE2BD00401F2
:1007E0001A2D06D020820001C66B25DE03D004013D
:1007F000000124DE1FD0020E1E6E1AC42BF0C66B41
:100800001ADE18D068D616D01FC058F4010EC66F75
:1008100012DE10D004011A51010809E31AC41FF0B6
:100820001AC4C3F00001C2D6C66B05DE0401000184
:1008300001D004DE8FEF05F01FC0C3F00401195191
:10084000000A000105E00A0A0BE0010A2BE03CD097
:100850000401586B596B020E0001C66FECDD35D0F8
:10086000C3531EE0010EC35D036AF2CFC4F0F29ED3
:100870009BDCC4BFF28E016E04011C5DD8A002D0C7
:1008800000010ED0036A1C51300FE96E000E0320E8
:10089000EA6EEFCF58F4010E0001C66FCCDD01D037
:1008A000CDDD13D0C3530EE0036A04011C51300F99
:1008B000E96E000E0320EA6E1AC4EFFF0001C66B5A
:1008C000BADD01D0BBDD01D0B9DD8FEF05F0C491F9
:1008D000C3BFC481C39FC4A117D0D36BC3C0D2F020
:1008E000D56B080ED46FF2DC02C0C6F001C0C5F0B3
:1008F000040EC527000EC623C5C0E9FF040EC62599
:10090000EA6E880EEF6E0DD0D36BC3C0D2F0D56BFC
:10091000080ED46FDBDC01C0E9FF040E0224EA6E8E
:10092000EF6A07EF05F0C491C3BFC481C39FC4A1A0
:1009300017D0D36BC3C0D2F0D56B080ED46FC6DC12
:1009400002C0C6F001C0C5F0040EC527000EC623C4
:10095000C5C0E9FF040EC625EA6E840EEF6E0ED008
:10096000D36BC3C0D2F0D56B080ED46FAFDC01C01F
:10097000E9FF040E0224EA6E840EEF6E0DEF05F01F
:10098000C491C3BFC481C39FC4A117D0D36BC3C0DC
:10099000D2F0D56B080ED46F99DC02C0C7F001C04D
:1009A000C6F0040EC627000EC723C6C0E9FF040E1A
:1009B000C725EA6EEFCFC5F00ED0D36BC3C0D2F01F
:1009C000D56B080ED46F82DC01C0E9FF040E02244F
:1009D000EA6EEFCFC5F0C5AF02D0C5B502D0000EAC
:1009E00001D0010E016E17EF05F01CC4CDF043DC01
:1009F000015228E004011951010A000105E0020A30
:100A000009E0030A0DE01DD01CC4C3F060D7C66B1B
:100A100012DD18D01CC4C3F086D7C66B0CDD12D013
:100A20000401586B596B1CC4C3F00001A9D70152D3
:100A300004E0010E0401586F0001020EC66FFBDCDA
:100A400001D0FCDC8FEF05F0FE0E2A6E12000401CF
:100A50001C2D01D002D01C5348E11951000A00019D
:100A60000BE0010A0DE0210A1CE0010A1FE0030A65
:100A70002EE0010A31E037D0010E856FE5DF34D07A
:100A8000040EEA6E580EE96EE26A3B0EE16E080E45
:100A9000016EE6CFEEFF012EFCD71EC4C6F0CBDC04
:100AA00023D0020E856F8381CFDF1ED0040EEA6E45
:100AB000580EE96EE26A320EE16E070E016EE6CF65
:100AC000EEFF012EFCD7070EC66FB5DC0DD01AC4A1
:100AD00084F0C66BB0DC08D01AC43AF01BC439F0FD
:100AE000C66BA9DC01D0AADC040100018FEF05F080
:100AF0001E6A040118517F0B000A000107E0010A79
:100B000007E0030A07E0230A07E008D040D607D031
:100B100093D605D06AD703D09AD701D08FDCBAEF2D
:100B200007F0D36BC4C0D2F0D56B080ED46F66EC5F
:100B300001F001C0E9FF040E0224EA6EEFCFC6F017
:100B4000C551020806E1C6AD02D0C56B02D0010E48
:100B5000C56FC55103081AE1840EC66FD36BC4C0BC
:100B6000D2F0D56B080ED46F66EC01F002C0CAF06B
:100B700001C0C9F0040EC927000ECA23C9C0E9FF8D
:100B8000040ECA25EA6E840EEF6E07D0C52D03D081
:100B9000C80EC66F02D0880EC66FD890C435036ADF
:100BA000F2CFC9F0F29E89EC00F00900F5CF03F016
:100BB000C9BFF28EC76F03C0C8F0D36BC4C0D2F0F8
:100BC000D56B080ED46F66EC01F001C0C9F0010EC0
:100BD0000124016E000E0220036E01C0E9FF040E25
:100BE0000324EA6EC7C0EFFFC8A101D0C681C8A325
:100BF00001D0C683D36BC4C0D2F0D56B080ED46FBE
:100C000066EC01F001C0E9FF040E0224EA6EC6C0E2
:100C1000EFFF1200036AD151700FE96E0F0E03202F
:100C2000EA6EEF5219E0D36BD1C0D2F0D56B080E4B
:100C3000D46F66EC01F002C0D3F001C0D2F0040E14
:100C4000D227000ED323D2C0E9FF040ED325EA6ECB
:100C5000EFCFD4F0D4AF02D0000E01D0010E016E60
:100C60001200CCC0D1F0D6DF0152D8B47DD0D36B06
:100C7000CCC0D2F0D56B080ED46F66EC01F002C088
:100C8000D2F001C0D1F0040ED127000ED223010E04
:100C9000D125016E000ED221036E01C0E9FF040EC2
:100CA0000324EA6ECDC0EFFFCF5102081EE1D36BE3
:100CB000CCC0D2F0D56B080ED46F66EC01F002C048
:100CC000D2F001C0D1F0040ED127000ED223D1C042
:100CD000E9FF040ED225EA6EEFCFD0F0D0AD02D0FE
:100CE000CF6B02D0010ECF6F18D0CF51040815E1A1
:100CF000D36BCCC0D2F0D56B080ED46F66EC01F08C
:100D000001C0E9FF040E0224EA6EEFCFD0F0D0ADAF
:100D100003D0010ECF6F01D0CF6BCF2D03D0C80E03
:100D2000D06F02D0880ED06FCEA101D0D081CEA3DB
:100D300001D0D083D36BCCC0D2F0D56B080ED46F6A
:100D400066EC01F002C0D2F001C0D1F0040ED12750
:100D5000000ED223D1C0E9FF040ED225EA6ED0C026
:100D6000EFFF010E016E02D0000E016E12008551E0
:100D7000010A03E0030A13E024D0EA6A3B0EE96E9D
:100D8000040EE26E180EE16E080E016EE6CFEEFF65
:100D9000012EFCD7C66B1BEC02F0856B13D0EA6A00
:100DA000320EE96E040EE26E180EE16E070E016E51
:100DB000E6CFEEFF012EFCD7856BC66B1BEC02F075
:100DC00001D0856B17EF07F0D36BC4C0D2F0D56BA1
:100DD000080ED46F66EC01F002C0C6F001C0C5F089
:100DE000010E0124016E000E0220036E01C0E9FF16
:100DF000040E0324EA6E036AEFCF01F003C002F091
:100E00000DEF07F02590020EC46FC56F8ADE120049
:100E10002580276A020EC46FD7D701C026F026525C
:100E200001E1F0DF1CEF07F0C35302E1A0D704D0CB
:100E3000C351020801E1ECD71200C4C06EFFC453D5
:100E400003E0040E296E02D0020E296E2DEF07F08A
:100E50001F6A1E6A2BC0C4F0F0D799EF07F0C4C018
:100E6000D1F0D8DE015243E0D36BC4C0D2F0D56BD1
:100E7000080ED46F66EC01F002C0CDF001C0CCF0DA
:100E8000040ECC27000ECD23020ECC25016E000EE1
:100E9000CD21036E01C0E9FF040E0324EA6EECCFFE
:100EA000CBF0ED52EFCFCAF0CBC0EAFFCAC0E9FFEA
:100EB000C6C0E2FFC5C0E1FFC8C002F0C7C001F074
:100EC000015202E0022A02D0025206E0E6CFEEFF13
:100ED000012EFCD7022EFAD7C4C0CCF0C8C0CEF089
:100EE000C7C0CDF0C9C0CFF0BCDE015002D0000EAB
:100EF000016E120082530EE0020EC46FC66B430EE9
:100F0000C56FC86B82C0C7F0020EC96FA8DF01525F
:100F100001E0826B1200EEDF9EEF07F0C3530AE19F
:100F20001E2C03D020EC02F004D01E500208D8B4CE
:100F30008FD704D0C351020801E1EDD71200283049
:100F4000C16FC133C1331F0EC117285241E10401E3
:100F500000513C0B0001C26F430E04010017000159
:100F6000C25134081EE104010451800B01E0046BFE
:100F70000001BED56D982A3C05D0C46B030EC56F29
:100F8000D0DD0ED0C46B020EC56FCBDD2A50FE083B
:100F900007E0CC6BCE6B2AC0CDF0040ECF6F61DEC4
:100FA00016D0C251040813E1C36B3EDFC46B020EBE
:100FB000C56FB7DD2A50FE080AE02A3C01D007D0F1
:100FC000CC6BCE6B2AC0CDF0010ECF6F4ADE1AD0AB
:100FD000285004080EE12A68C36BA0DF2A3C01D028
:100FE00007D0CC6BCE6B2AC0CDF0020ECF6F39DEAE
:100FF00009D028B404D0C1C0C3F016DF03D0C1C0EB
:10100000C3F08CDF35EF08F0A19A2952D8B433D061
:101010006852D8B430D068A403D069B418EF01F096
:101020006DB229D068AA03D069BA30EF01F068A286
:1010300003D069B237EF01F068A003D069B0FEEFCA
:1010400001F068A803D069B813EF02F068AC03D0D0
:1010500069BC18EF02F0C06B68A608D069A606D07C
:101060006CCF28F002EC00F06AD701D004D0C05158
:10107000C02B0308F1E230EF00F09EAAFED7ABCF01
:1010800017F0AECF01F017A202D0AB98AB8855EFA6
:1010900008F0036AA651860FE96E000E0320EA6E7F
:1010A000EACFC4F0E9CFC3F0E8D7C4C0EAFFC3C0B9
:1010B000E9FF01C0EFFFA6C0C0F0010EA6251F0B7F
:1010C000A66FA751A65D02E1C0C0A6F09E9A30EFC0
:1010D00000F048656C6C6F20576F726C640A0D00ED
:1010E0006D6A696A080E6F6E94503009946E296AB1
:1010F000166AF2BE168EF29EE8EC01F016BEF28E73
:101100001200EEDF38EF09F0166AF2BE168EF29E7C
:10111000E8EC01F016BEF28E6D6A140E6F6E696A0D
:101120006D86010E296E9BEF08F0938481A404D094
:101130006DB601D0E9D703D06DA601D0D1DF292C3F
:101140000BD06DBA09D0686A696AA08AC00EF21223
:10115000110E696E020E296E44EF09F01F50016EE8
:1011600045EF09F0AE91A0BAAE81A09A82513E0837
:1011700002E23E0E826F8251822B036A430FE96EB8
:10118000000E0320EA6EADC0EFFFAEA101D0A08A31
:10119000CDEF08F0ACC0ADF0E5D7166AF2BE168E02
:1011A000F29EA8DE16BEF28EDEEF08F03F0ED8806B
:1011B000825501E1FBD7ABC0ACF0ECD712000900BF
:1011C000F5520CE0F6CFA9F0F7CFAAF0F5CFABF0CF
:1011D000EDDFA9C0F6FFAAC0F7FFF1D750EF09F085
:1011E00025B001D0FDD72750272AA30FE96E040EA2
:1011F000EA6ED8B0EA2AEFCFA9F02650275C07E3C1
:10120000166AF2BE168EF29EFDDD16BEF28EA9C0E3
:1012100001F054EF09F0F86AD09E078E176AB8966D
:10122000190EAF6EA60EAC6E900EAB6E8393A66BCE
:10123000A76B200EA86FC150C00B0F09C16E070E1F
:10124000B46E186A196A226A040E236E0C0E246E9C
:10125000C150C00B0F09C16E070EB46E9250926E52
:10126000270E006E002EFED700D0B450A19C49D7A7
:10127000166AF2BE168EF29EB0EC01F016BEF28E29
:10128000938481A420D051D769D701521BE084A157
:1012900019D083B306D0D20EF66E100EF76E8FD72C
:1012A000838325A00FD09CD70150A96F600806E268
:1012B000A9517A0803E3A951DF0B01D0A951A96F05
:1012C000AB6F74DF09D08393166AF2BE168EF29E5E
:0C12D000B0EC01F016BEF28ED3D7030084
:020000040030CA
:0E00000022CE1E1E000781000FC00FE00F4031
:00000001FF
;PIC18F2550
;CRC=0832  CREATED="22-févr.-21 22:22"
