:04080000CAEF08F043
:08080800F76A180FF66E080EE6
:10081000F7220900F5501200280C0106F76A2C0F88
:10082000F66E080EF7220900F550120000000000D5
:10083000010101000101010100000000001F1F1F54
:100840001F1F1F1F1F1F1F1F1F1F1F1E000018001D
:10085000181C1810001010100000100000000000FC
:1008600000000000F76A740FF66E080EF722090008
:10087000F55012000000000000000000070707000C
:1008800001030301000F1F1F1F1F1F0F1F1F1F1F2B
:100890001F19001000001C101C1E1C181F1F161E04
:1008A0001E1E0000F76AB40FF66E080EF72209004C
:1008B000F5501200000000000000000000000000E1
:1008C000030307000000070F0F1F1F1F0F1F1F1F2D
:1008D0001F1F07070000101E181E1F1E1C1E1C18BD
:1008E00018100010F76AF40FF66E080EF7220900D0
:1008F000F5501200000307070F0F0F030F0F0F0F24
:100900000703030300181F1C1F1F1F1E1C1E1E1E93
:100910001C1C1E100000000000000000F76A2C0FD5
:10092000F66E090EF7220900F550120000010303CC
:10093000070707011F1F1B070F1F1C0E001C1F1E90
:100940001F1F1F1F1F1F1E1F1F0F00000000100072
:100950000010000018181010101000000000000017
:1009600000000000F76A740FF66E090EF722090006
:10097000F550120000000001010303030103070FFB
:100980000F1F180000001E1F1F1F1F1F1F1F1F1FEC
:100990001F1E1C1E00000010001018100010000088
:1009A00000000000EA6A0A0EE96EEF500EE00F0E3A
:1009B000016E006A002EFED7012EFBD78F0E006E4F
:1009C000002EFED70000EF2EF2D7000C11B002D09F
:1009D0008C9801D08C88959811B202D08C9A01D055
:1009E0008C8A959A11B402D08C9C01D08C8C959CE9
:1009F00011B602D08C9E01D08C8E959E00008D8405
:100A00009694070E006E002EFED700D08D9496941B
:100A1000000C126A9588000E83B8010E1212958A96
:100A2000000E83BA010E006ED890003600501212EC
:100A3000958C000E83BC010E006E00360036FC0E55
:100A4000001600501212958E000E83BE010E006E2D
:100A5000003600360036F80E00160050121212C092
:100A600001F0000C9588958A958C958E8D829692D2
:100A700000008D8496940000CCDF01C011F08D94AD
:100A8000969400008D849694030E006E002EFED77F
:100A900000D0BFDF01C010F08D9496949598959A80
:100AA000959C959E1138006EF00E001600501010A7
:100AB000016E5EEF05F08D909690D4D701C010F0D6
:100AC00001BEFBD70E5202E18D9001D08D80969031
:100AD00000008D92969200008D9496940F38106EBF
:100AE0000F0E101610C011F071DF0F500F0B106EAB
:100AF000116E6CDF000C9598959A959C959E969436
:100B0000969096928D9096908D9296928D949694C2
:100B10000F0E0A6E47DF010E066E0650030808E34B
:100B2000030E116E53DF050E0A6E3CDF062AF5D761
:100B3000020E116E4BDF066A065003080EE3036ACD
:100B40000650F2CF07F0F29E5FDE07BEF28E076E10
:100B50000E6A0F6EB0DF062AEFD7C1EF05F00B2C3F
:100B600001D003D0400E0C6E01D00C6A010E0A5C5D
:100B70000C260C5080090D6E0E6A0F6E9CDF000C67
:100B8000BAD7010E0A6E0B6EEADF0E6A010E0F6E07
:100B900092DFD7EF08F0016A026A006A036A09501F
:100BA00002E1085018E0100E0A6ED890063607369B
:100BB000003603360950035C02E10850005C07E38D
:100BC0000850005ED8A003060950035ED8800136A5
:100BD00002360A2EEAD7F5EF05F0030E076EE80E8F
:100BE000066E096A04C008F0D6D701C005F0D8EF38
:100BF00008F00B6A0B5006082DE30B34006E00362C
:100C00000036F80E00160050400F0A6E0E6A0AC039
:100C10000FF051DF0C6A0C5007081AE30B50080D57
:100C2000F3500E6A0D6E036A0C500D24016E0E50C7
:100C300003220150F2CF0DF0F29EF0DD0DBEF28ED8
:100C40000D6E010E0E6E0DC00FF035DF0C2AE3D7CE
:100C50000B2AD0D73FEF07F00B6A0B5005082DE3A6
:100C60000B34006E00360036F80E00160050400FB0
:100C70000A6E0E6A0AC00FF01EDF0C6A0C500708DD
:100C80001AE30B50080DF3500E6A0D6E036A0C50F8
:100C90000D24016E0E5003220150F2CF0DF0F29E92
:100CA000E1DD0DBEF28E0D6E010E0E6E0DC00FF069
:100CB00002DF0C2AE3D70B2AD0D77DEF07F00B6AAF
:100CC0000B5005082DE30B34006E00360036F80E8D
:100CD00000160050400F0A6E0E6A0AC00FF0EBDEDD
:100CE0000C6A0C5007081AE30B50080DF3500E6AFB
:100CF0000D6E036A0C500D24016E0E50032201503C
:100D0000F2CF0DF0F29ECEDD0DBEF28E0D6E010E15
:100D10000E6E0DC00FF0CFDE0C2AE3D70B2AD0D712
:100D2000BBEF07F00B6A0B5004082DE30B34006E89
:100D300000360036F80E00160050400F0A6E0E6A9C
:100D40000AC00FF0B8DE0C6A0C5007081AE30B500B
:100D5000080DF3500E6A0D6E036A0C500D24016EDF
:100D60000E5003220150F2CF0DF0F29EBBDD0DBEFE
:100D7000F28E0D6E010E0E6E0DC00FF09CDE0C2A71
:100D8000E3D70B2AD0D7F9EF07F00B6A0B50060810
:100D90002DE30B34006E00360036F80E00160050BE
:100DA000400F0A6E0E6A0AC00FF085DE0C6A0C5006
:100DB00007081AE30B50080DF3500E6A0D6E036A14
:100DC0000C500D24016E0E5003220150F2CF0DF095
:100DD000F29EA4DD0DBEF28E0D6E010E0E6E0DC0E4
:100DE0000FF069DE0C2AE3D70B2AD0D737EF08F0D3
:100DF0000B6A0B5005082DE30B34006E00360036ED
:100E0000F80E00160050400F0A6E0E6A0AC00FF06E
:100E100052DE0C6A0C5007081AE30B50080DF35011
:100E20000E6A0D6E036A0C500D24016E0E500322E3
:100E30000150F2CF0DF0F29E95DD0DBEF28E0D6EDB
:100E4000010E0E6E0DC00FF036DE0C2AE3D70B2A12
:100E5000D0D789EF08F0066A0E6A010E0F6E2BDEFE
:100E6000066A06501308D8A093D1010E0624076E17
:100E7000020E0624086E030E0624096EBAD606C0BA
:100E80000AF0010E0B6E6BDE010E0E6E0F6A13DEA2
:100E900006C00AF0020E0B6E62DE010E0E6E0F6EC1
:100EA0000ADE07C00AF0010E0B6E59DE010E0E6E4F
:100EB000020E0F6E00DE07C00AF0020E0B6E4FDE50
:100EC000010E0E6E030E0F6EF6DD08C00AF0010E65
:100ED0000B6E45DE010E0E6E040E0F6EECDD08C0CB
:100EE0000AF0020E0B6E3BDE010E0E6E050E0F6E4B
:100EF000E2DD05C00AF056DDAFD606C00AF0010EED
:100F00000B6E2DDE010E0E6E0F6AD5DD06C00AF0E7
:100F1000020E0B6E24DE010E0E6E0F6ECCDD07C0CE
:100F20000AF0010E0B6E1BDE010E0E6E020E0F6E2E
:100F3000C2DD07C00AF0020E0B6E11DE010E0E6E4E
:100F4000030E0F6EB8DD08C00AF0010E0B6E07DE4F
:100F5000010E0E6E040E0F6EAEDD08C00AF0020E1A
:100F60000B6EFDDD010E0E6E050E0F6EA4DD05C0CD
:100F70000AF018DDA4D606C00AF0010E0B6EEFDDF4
:100F8000010E0E6E0F6A97DD06C00AF0020E0B6EA0
:100F9000E6DD010E0E6E0F6E8EDD07C00AF0010E4B
:100FA0000B6EDDDD010E0E6E020E0F6E84DD07C0CE
:100FB0000AF0020E0B6ED3DD010E0E6E030E0F6EE5
:100FC0007ADD08C00AF0010E0B6EC9DD010E0E6E4F
:100FD000040E0F6E70DD08C00AF0020E0B6EBFDD4E
:100FE000010E0E6E050E0F6E66DD05C00AF0DADC2E
:100FF00099D606C00AF0010E0B6EB1DD010E0E6E21
:10100000060E0F6E58DD06C00AF0020E0B6EA7DD4D
:10101000010E0E6E060E0F6E4EDD07C00AF0010EB9
:101020000B6E9DDD010E0E6E0F6A45DD07C00AF0E6
:10103000020E0B6E94DD010E0E6E0F6E3CDD08C0CD
:101040000AF0010E0B6E8BDD010E0E6E020E0F6E9E
:1010500032DD08C00AF0020E0B6E81DD010E0E6E4D
:10106000030E0F6E28DD05C00AF09CDC8ED606C08C
:101070000AF0010E0B6E73DD010E0E6E060E0F6E82
:101080001ADD06C00AF0020E0B6E69DD010E0E6E4F
:10109000060E0F6E10DD07C00AF0010E0B6E5FDD4D
:1010A000010E0E6E0F6A07DD07C00AF0020E0B6E0E
:1010B00056DD010E0E6E0F6EFEDC08C00AF0010E4A
:1010C0000B6E4DDD010E0E6E020E0F6EF4DC08C0CD
:1010D0000AF0020E0B6E43DD010E0E6E030E0F6E54
:1010E000EADC09C00AF0010E0B6E39DD010E0E6E4E
:1010F000040E0F6EE0DC09C00AF0020E0B6E2FDD4D
:10110000010E0E6E050E0F6ED6DC05C00AF04ADC2D
:101110006FD607C00AF0010E0B6E21DD010E0E6EB8
:101120000F6AC9DC07C00AF0020E0B6E18DD010E53
:101130000E6E0F6EC0DC08C00AF0010E0B6E0FDDE4
:10114000010E0E6E020E0F6EB6DC08C00AF0020E23
:101150000B6E05DD010E0E6E030E0F6EACDC09C0CA
:101160000AF0010E0B6EFBDC010E0E6E040E0F6E0C
:10117000A2DC09C00AF0020E0B6EF1DC010E0E6E4D
:10118000050E0F6E98DC05C00AF00CDC062A69D645
:10119000D9EF08F0F86AD09EEA6AE96A040E046E94
:1011A000C150C00B0F09C16E070EB46EE9D415D53E
:0611B00052D6FED7030039
:020000040030CA
:0E00000024CE381E000781000FC00FE00F4015
:00000001FF
;PIC18F4550
;CRC=0CCA  CREATED="25-oct.-20 22:32"
