:04080000C4EF0CF045
:08080800F76A180FF66E080EE6
:10081000F7220900F5501200000000000000005F00
:1008200000000007000700147F147F14242A7F2A89
:10083000122313086462364956205000080703004B
:10084000001C2241000041221C002A1C7F1C2A0897
:10085000083E0808008070300008080808080000FA
:1008600060600020100804023E5149453E00427F6E
:10087000400072494949462141494D331814127FBD
:100880001027454545393C4A49493141211109075D
:100890003649494936464949291E000014000000DE
:1008A00040340000000814224114141414140041B0
:1008B00022140802015909063E415D594E7C12116D
:1008C000127C7F494949363E414141227F414141A5
:1008D0003E7F494949417F090909013E4141517320
:1008E0007F0808087F00417F41002040413F017F91
:1008F000081422417F404040407F021C027F7F0459
:1009000008107F3E4141413E7F090909063E4151A1
:10091000215E7F0919294600F76A280FF66E090E35
:10092000F7220900F5501200264949493203017F98
:1009300001033F4040403F1F2040201F3F403840C0
:100940003F631408146303047804036159494D4359
:10095000007F4141410204081020004141417F04D1
:1009600002010204404040404000030708002054B8
:100970005478407F28444438384444442838444418
:10098000287F385454541800087E090218A4A49CE7
:10099000787F0804047800447D40002040403D00FA
:1009A0007F1028440000417F40007C047804787C5C
:1009B000080404783844444438FC182424181824C3
:1009C0002418FC7C08040408485454542404043FAC
:1009D00044243C4040207C1C2040201C3C403040B3
:1009E0003C44281028444C9090907C4464544C44DF
:1009F0000008364100000077000000413608000280
:100A000001020402F76A140FF66E0A0EF7220900BB
:100A1000F5501200566F6C746D6574726520434317
:100A20000000566F6C746D6574726520432E430030
:100A300028707265636973696F6E20313020626956
:100A40007473290025342E336620566F6C7473003E
:100A500025342E336620566F6C747300040EEA6ED4
:100A6000260EE96EEF500EE00F0E016E006A002EAA
:100A7000FED7012EFBD78F0E006E002EFED7000092
:100A8000EF2EF2D71200C69E9E9629C4C9FF020E11
:100A9000C6BE05D09EA6FED7000EC5BC010E016ED7
:100AA00012000401286BC580C5B0FED70BC029F425
:100AB0000001E9DF28C429F4E6DF27C429F4E3DFD5
:100AC000C584C5B4FED7120024C40CF025C40BF0B5
:100AD0000A0E0401266F0001C1DFAE0E0401276F6C
:100AE0000001DFDFD50E0401276F0001DADF800E81
:100AF0000401276F0001D5DFA80E0401276F000154
:100B0000D0DF3F0E0401276F0001CBDFD30E0401BD
:100B1000276F0001C6DF0401276B0001C2DF400E12
:100B20000401276F0001BDDF8D0E0401276F000156
:100B3000B8DF0401242D06D0100E276F0001B1DFAD
:100B400005D00401140E276F0001ABDF200E040155
:100B5000276F0001A6DF0401276B0001A2DFA10EB1
:100B60000401276F00019DDFC80E0401276F0001FB
:100B700098DFDA0E0401276F000193DF120E0401E3
:100B8000276F00018EDF810E0401276F000189DFCE
:100B90000401242D06D09F0E276F000182DF05D0AF
:100BA0000401CF0E276F00017CDFD90E0401276FEF
:100BB000000177DF0401242D06D0220E276F0001EB
:100BC00070DF05D00401F10E276F00016ADFDB0E34
:100BD0000401276F000165DF400E0401276F00014B
:100BE00060DFA40E0401276F00015BDFA60E040185
:100BF000276F000156DF2E0E0401276F000151DF21
:100C0000AF0E0401276F00014CDF0D6A0E6A010E62
:100C10000F6E40EF0EF0210E0401276F000141DF3F
:100C20000401276B00013DDF7F0E0401276F0001E7
:100C300038DF220E0401276F000133DF0401276B28
:100C400000012FDF070E0401276F00012ADF0401D6
:100C5000256B246B255103082EE3C580C5B0FED754
:100C60000BC029F400010FDF400E0401296F0001C1
:100C70000ADF0401266B26510F0812E3110E24250A
:100C8000E96E000E2521EA6EEFCF27F427C429F480
:100C90000001F9DE0401242BD8B4252B262BEBD739
:100CA0002451D8B425072407C584C5B4FED7242B06
:100CB000D8B4252BCFD7000112000401256B246B7B
:100CC000255103080BE3110E2425E96E000E2521A2
:100CD000EA6EEF6A242BD8B4252BF2D7000112005C
:100CE0008E0E006E25C401F024C402F0036A015286
:100CF00009E102C001F0026A080E005E015202E141
:100D0000006A08D0D89001BE04D002360136000631
:100D1000F9D7019E84EF0EF004013151D8B471D09F
:100D2000006E3551D8B46DD0002604E3810E002644
:100D300068E204D07F0E005E64E363E032C439F4FD
:100D40003651391B328F368F34513803F4CF3BF490
:100D500033513703F4CF03F0F3CF3AF43803F350B1
:100D60003B27F4503A23000E032234513703F3504B
:100D70003B27F4503A23000E026A0322022232512A
:100D80003803F3503A27F4500322000E0222325166
:100D90003703F3500326F4500222000E016A0122A9
:100DA00034513603F3503A27F4500322000E022246
:100DB000012233513603F3500326F4500222000E71
:100DC000012232513603F3500226F4500122002A48
:100DD00001BE05D03A370336023601360006000E52
:100DE0003AAF0AD0032A02220122015005E1025043
:100DF00003E1035001E1002A39BF018E39AF019EA2
:100E000004D0006A016A026A036A00011200040148
:100E10002851D8B4A5D0346F2C51D8B4A1D0345FA8
:100E200005E37F0E3427D8B09BD006D0810E345F07
:100E3000D8A096D0D8B494D034C400F0016A026A25
:100E4000036A336B29C432F4328F2AC431F42BC4C1
:100E500030F4190E346F2F51305F0DE2010E315F07
:100E60000AE2325F08E2335F06E2332B322B312B8A
:100E70002F51302728D02E51315F12E2010E325F00
:100E80000FE2335F0DE2332B322B2E5131272F51DE
:100E9000302719E3312B17E1322B15E1332B13D017
:100EA0002D518009325F0EE2010E335F0BE2332BCE
:100EB0002D51800932272E513127E9E3322BE7E10A
:100EC000332BE5D70380342F01D00BD0D8903037A7
:100ED000313732373337D89003360236013635375B
:100EE000BAD735A106D0D890013202320332353359
:100EF00002D0000635E035BF1ED0D89030373137EC
:100F0000323733372F51305F07E2010E315F04E291
:100F1000325F02E2335F1AE32E51315F05E2010EC8
:100F2000325F02E2335F12E32D518009325F03E248
:100F3000010E335F0BE3032A09E1022A07E1012ACC
:100F400005E1002A0DE001320232033229C434F4F3
:100F50002D51341B34AF02D0018E06D0019E04D037
:100F6000006A016A026A036A0001B2EF0EF009002A
:100F7000F5520DE0F6CF24F4F7CF25F4F5509EA8F6
:100F8000FED7AD6E24C4F6FF25C4F7FFF0D71200DC
:100F900004013151B608316F036A32C435F4328F1F
:100FA000D8903233333334330332023201320032D9
:100FB000312FF6D735AF0BD0001E011E021E031EC7
:100FC000002AD8B4012AD8B4022AD8B4032A0001CE
:100FD0001200D8B204D0040EEA6E390EE96E006A2F
:100FE000016A026A036A0401396B3A6B3B6B3C6B22
:100FF00038513711361135112CE0200E3D6FD89045
:10100000313732373337343739373A373B373C3774
:1010100038513C5D08E137513B5D05E136513A5DA1
:1010200002E13551395D0FE33551395F3651D8A0B2
:10103000363D3A5F3751D8A0373D3B5F3851D8A095
:10104000383D3C5FD88000360136023603363D2FEE
:10105000D6D739C4EFFF3AC4ECFF3BC4ECFF3CC425
:10106000ECFF00011200E9500401296F28512B6F99
:101070001BE027C434F426C433F425C432F424C45A
:1010800031F4386B376B200E366F820E356F0001EE
:1010900043DE03C027F402C026F401C025F400C0DB
:1010A00024F404012B2FE5D727C434F426C433F4E9
:1010B00025C432F424C431F400016ADF03C027F4EC
:1010C00002C026F401C025F400C024F4040127AFB7
:1010D0000DD02907298B241F251F261F271F242BEE
:1010E000D8B4252BD8B4262BD8B4272B3B0E306F81
:1010F0009A0E2F6FCA0E2E6F2D6B0A0E2B6F285172
:10110000D8B4292BD882040EEA6E240EE96E27C4C7
:1011100034F426C433F425C432F424C431F430C486
:1011200038F42FC437F42EC436F42DC435F400013E
:1011300050DF0150005213E1040128292B5DD8A48F
:1011400002D000010CD029510DE00F0B2B5D01E006
:101150003CE229BF3AD029BD05D0200E31D0200E67
:101160000401291729AB0DD0299B2851D8A42907A0
:101170000050296F2D0E9EA8FED7AD6E2951006E2E
:10118000296B28512B5D0BE10050296F2E0E9EA874
:10119000FED7AD6E2951006E200E2917000E300EBD
:1011A00029AB0ED0299B2851D8A429070050296FBC
:1011B0002D0E9EA8FED7AD6E2951006E296B300E04
:1011C000002600509EA8FED7AD6ED89230C434F4ED
:1011D0002FC433F42EC432F42DC431F4386B376B82
:1011E000366B0A0E356F0001F4DE03C030F402C026
:1011F0002FF401C02EF400C02DF404012B2F82D750
:101200000001EDEF0EF00900F6CF25F4F7CF26F43C
:10121000F5509EA8FED7AD6E25C4F6FF26C4F7FF95
:101220000401242F01D002D00001EDD70001F7EF17
:101230000EF004012B517F0803E32C513F0801E21B
:1012400004D02BC40DF02CC40EF0000112000401D8
:101250002B5302E1010E2B6F2BC40FF00001120083
:1012600004015C517F0803E35D513F0801E26ED049
:101270005E5336E05D31006E003200321F0E001604
:101280000050606B5F6F5F35026E6035036E023633
:10129000033602360336023603360236033602368A
:1012A000033602360336800E021602505C255F6F4D
:1012B000000E0320606F110E5F25E96E000E6021A5
:1012C000EA6E5D51070B016E010E006E015204E0E3
:1012D000D8900036012EFCD70050EF10EF6E36D0BC
:1012E0005D31006E003200321F0E00160050606B40
:1012F0005F6F5F35026E6035036E0236033602366D
:101300000336023603360236033602360336023619
:101310000336800E021602505C255F6F000E03201C
:10132000606F110E5F25E96E000E6021EA6E5D515F
:10133000070B016E010E006E015204E0D8900036DA
:10134000012EFCD70050FF0AEF14EF6E00011200CF
:1013500004014E9147514B5D5C6F48514C595D6F94
:10136000036E5C515DAF08D0000ED8805C55006EF6
:10137000000E5D55036E00505C6F03C05DF4455177
:10138000495D5E6F46514A595F6F036E5E515FAFB4
:1013900008D0000ED8805E55006E000E5F55036EBB
:1013A0000050016E03AE03D05DAF0AD002D05DBF26
:1013B00008D003505D5D05E303E15C51015C01E28F
:1013C0004E814EA118D046C455F445C454F448C4C7
:1013D00046F447C445F455C448F454C447F44AC4D9
:1013E00057F449C456F44CC44AF44BC449F457C4A6
:1013F0004CF456C44BF44AAF03D046AF0AD002D0E7
:1014000046BF1FD04A51465D1CE303E14551495D8B
:1014100018E246C459F445C458F44AC446F449C4D1
:1014200045F459C44AF458C449F448C45BF447C469
:101430005AF44CC448F44BC447F45BC44CF45AC44B
:101440004BF44551495D006E46514A5900C050F475
:1014500047514B5D5C6F48514C595D6F036E5C5159
:101460005DAF08D0000ED8805C55006E000E5D5553
:10147000036E0050516FD8905031036A526F03C011
:1014800053F448AF03D04CAF0AD002D04CBF0AD0BF
:1014900048514C5D07E303E14B51475D03E2010E08
:1014A0004F6F01D04F6946AF03D04AAF0AD002D088
:1014B0004ABF47D046514A5D44E303E14551495D87
:1014C00040E34EA115D04D530AE047C45CF445C437
:1014D0005DF4010E5E6F0001C3DE08D0040147C455
:1014E0005CF445C45DF45E6B0001BADE14D0040107
:1014F0004D530AE045C45CF447C45DF4010E5E6FD1
:101500000001AEDE08D0040145C45CF447C45DF4BC
:101510005E6B0001A5DE04015151525F000E535B6A
:1015200053AF0BD0036A4F51E8BE03064727035061
:10153000482350515227000E5323452BD8B4462B35
:10154000B2D70001B8EF0AF0040142514125FF0F64
:10155000446F466B40C445F4486B41C447F44A6B42
:1015600040C449F44C6B4B6F43C44DF40001F0D6BA
:10157000D2EF0AF0036A040139C43EF403C03FF419
:101580003B5139253FBF04D03F5311E13E5D0FE28F
:101590003EC440F43AC441F43CC442F43DC443F474
:1015A0000001D2D704013E2BD8B43F2BE9D700016C
:1015B000120004013151200805E10D5203E110A091
:1015C00001D0CED03151070804E10E6A0EC00DF0F3
:1015D000C7D0315108080AE10F50060DF3500D5CD9
:1015E00005E30F50060DF3500D5EBAD031510D08D2
:1015F00002E10D6AB5D031510A080CE10F50080D17
:10160000F3500E260F50070DF3500E24400801E250
:101610000E6AA6D031511F0803E231517E0802E262
:101620003F0E316F336B3351040864E3315152087C
:1016300012E3200E315D050DF3503325036AF2CF1E
:1016400036F4F29E000104EC04F0040136BFF28E81
:10165000016E356F10D0530E315D050DF3503325FB
:10166000036AF2CF36F4F29E00018CEC04F0040120
:1016700036BFF28E356F346B3451060839E335A12D
:1016800002D0328101D032910F2C13D033510D246E
:10169000366F34510E24376F000E32B1010E386FA1
:1016A00036C45CF437C45DF45E6F0001D9DD1AD036
:1016B000040133510F02F3500D24366F34510F02E1
:1016C000F3500E24376F000E32B1010E386F36C45E
:1016D00039F437C43AF40FC03BF40FC03CF43D6F0B
:1016E000000148DF04013451342BD8903533C4D77E
:1016F000332B99D70F50050DF3500D24366F0F5033
:10170000070DF3CF37F436C439F40EC03AF40FC0E6
:101710003BF437C43CF43D6B00012CDF0F50060D49
:10172000F3500D260F50060DF350800F0D5C03E0B3
:1017300002E3800E0D6E10A012D00F50050DF35075
:101740000D2480080CE20D6A0F50080DF3500E2690
:101750000F50070DF3500E24400801E20E6A0401F9
:101760000001120026C42BF427C42CF462DD2AC425
:101770002BF46DDD29C403F0040128C4E9FF29C45A
:10178000EAFFEF5211E029C403F02851282BD8B406
:10179000292BE96E03C0EAFFEFCF2BF42BC431F401
:1017A000000107DFE7D70401000119EF0FF0E9504E
:1017B0000401296F28512B6F1CE027C434F426C480
:1017C00033F425C432F424C431F4386B376B200E63
:1017D000366F820E356F00018CEC06F003C027F4E3
:1017E00002C026F401C025F400C024F404012B2F0C
:1017F000E4D727C434F426C433F425C432F424C413
:1018000031F40001C8EC07F003C027F402C026F44D
:1018100001C025F400C024F4040127AF0DD029072E
:10182000298B241F251F261F271F242BD8B4252BC7
:10183000D8B4262BD8B4272B3B0E306F9A0E2F6FBF
:10184000CA0E2E6F2D6B0A0E2B6F2851D8B4292B80
:10185000D882040EEA6E240EE96E27C434F426C43E
:1018600033F425C432F424C431F430C438F42FC422
:1018700037F42EC436F42DC435F40001E9EC07F03A
:101880000150005213E1040128292B5DD8A402D095
:1018900000010CD029510DE00F0B2B5D01E040E25F
:1018A00029BF3ED029BD05D0200E34D0200E040122
:1018B000291729AB0ED0299B2851D8A429070050FD
:1018C000296F2D0E316F000174DE04012951006E65
:1018D000296B28512B5D0CE10050296F2E0E316FC2
:1018E000000167DE04012951006E200E2917000E49
:1018F000300E29AB0FD0299B2851D8A429070050BE
:10190000296F2D0E316F000154DE04012951006E44
:10191000296B300E002600C031F400014ADE0401BC
:10192000D89230C434F42FC433F42EC432F42DC40E
:1019300031F4386B376B366B0A0E356F0001E9EC0A
:1019400007F003C030F402C02FF401C02EF400C031
:101950002DF404012B2F7CD7000135EF0FF0090087
:10196000F6CF25F4F7CF26F4F5CF31F422DE25C4E7
:10197000F6FF26C4F7FF0401242F01D002D0000196
:10198000EED700013EEF0FF0F86AD09E046AB896D9
:10199000190EAF6EA60EAC6E900EAB6E9382938056
:1019A0001D0EC86E280EC66EC79EC79C1080C15003
:1019B000C00B0F09C16E070EB46E3BD102000500CB
:1019C000003F40110003808080800FC000048080B1
:1019D00080C0C03FC000088080C0E0F0F8FCF8E0A4
:1019E00011C00005C080038000808004C00005C0D5
:1019F00080048000FFFFFF04C00004C0800F80004F
:101A0000008080000080FFFF80800080800004C094
:101A100080038000808005C0000E80808000008CE4
:101A20008E84000080F8F8F8800DC0000CC0F00C27
:101A300080E0E0C08000E0FCFEFFFFFF7F05C0FF0C
:101A40000EC0000380FEFFC704C001088083FFFFB3
:101A500000007CFEC704C001358083FFFFFF003813
:101A6000FEC78301010183C7FFFF000001FFFF01E3
:101A70000100FFFF0701010100007FFF800000005F
:101A8000FFFF7F0000FFFFFF000001FFFFFF010DD0
:101A9000C0000580030F3F7F7F07C0FF0C80E7C7B2
:101AA000C78F8F9FBFFFFFC3C0F005C0FF08C0FCFA
:101AB0000880F8F8F0F0E0C0000105C003038001E1
:101AC000030304C00001800104C003088001010376
:101AD000010000000104C0030E80010103030000A7
:101AE000000303000000030307C00001800105C0DC
:101AF000030D800100000001030100000003030149
:101B000011C000058080C0E0F0F905C0FF0C803FE7
:101B10001F0F87C7F7FFFF1F1F3DFC04C0F802809F
:101B20007C7D08C0FF07807F3F0F0700303016C064
:101B3000000380FEFEFC16C0000280E0C00BC00067
:101B40000280303015C0000280C0FE09C0FF0C804A
:101B50007F7F3F1F0F071F7FFFFFF8F805C0FF07BC
:101B600080FEF8E00000000108C0001F80FEFE00BB
:101B70000000FCFEFC0C06060EFCF80000F0F81C51
:101B80000E0606060CFFFFFF0000FEFE04C000313B
:101B900080FCFEFC00183C7E66E6CE84000006FF5A
:101BA000FF0606FCFEFC0C0606060000FEFE00001A
:101BB000C0F8FC4E4646464E7C7840183C76E6CE51
:101BC000CC8014C000058001070F1F1F04C03F0315
:101BD000801F0F030CC00008800F0F0000000F0FC4
:101BE0000F04C0002C800F0F000003070E0C181804
:101BF0000C060F0F0F0000010F0E0C180C0F070141
:101C000000040E0C180C0F070000000F0F00000F4F
:101C10000F0F06C00016800F0F00000007070C0C06
:101C2000181C0C060600040E0C180C0F0780C000D0
:101C30000000000EF86E190EF76EBC0EF66E09006D
:101C4000F550006E000A13E00900F550016EE8BE81
:101C500005D00F0BEA6E0900F5CFE9FF01BC0900C2
:101C600001AC0900F5CFEEFF004EE9D7F9D7F86ACD
:101C7000020E0401246F780E256F000164EF05F059
:101C8000C150C00B0E09C16EC050C00B0109C06E1F
:101C9000C08EC280000E016EC250C30B0110C26E16
:101CA0004F0E006E002EFED700D0040E0401246FEC
:101CB000FA0E266F00012EEC05F00401242FF8D750
:101CC00094948B8400010BEC06F05DEC06F0020EA0
:101CD0000401246FC80E266F00012EEC05F00401EC
:101CE000242FF8D700015DEC06F0C282C2B2FED705
:101CF000C4CF12F40401C3CF11F412C425F411C4EB
:101D000024F4000170EF06F003C034F402C033F491
:101D100001C032F400C031F4330E0401386F376F64
:101D2000530E366F800E356F00018CEC06F003C049
:101D300027F402C026F401C025F400C024F403C037
:101D40002BF402C02AF401C029F400C028F40401D5
:101D50002F6BC00E2E6F7F0E2D6F880E2C6F000123
:101D600007EF07F003C016F402C015F401C014F425
:101D700000C013F4FE0E9EA8FED7AD6E840E9EA882
:101D8000FED7AD6E220EF66E0A0EF76EB7EC07F0B8
:101D9000FE0E9EA8FED7AD6EC00E9EA8FED7AD6EFD
:101DA000300EF66E0A0EF76EB7EC07F0FE0E9EA828
:101DB000FED7AD6ED80E9EA8FED7AD6E030EE96EAF
:101DC00016C427F415C426F414C425F413C424F44B
:101DD0000401286F000133EF08F0490EF66E0A0E79
:101DE000F76E060E0401246F000103EF09F0040EE4
:101DF000EA6E170EE96EF2CF24F4F29E0D0E016E1C
:101E0000F76A000E02EC05F00A000900F5CFEEFFBC
:101E1000012EFBD7040124BFF28E020E266F070E9F
:101E2000276F040E296F170E286F010E2A6F00010D
:101E300099D4020E04012B6F100E2C6F000119ECC7
:101E400009F0020E04012B6F000127EC09F0030ECC
:101E5000E96E16C427F415C426F414C425F413C47B
:101E600024F40401286F0001A2D4550EF66E0A0E68
:101E7000F76E060E0401246F000171D50BEC06F01D
:041E800026D703005E
:020000040030CA
:0E00000022CE1E1E000781000FC00FE00F4031
:00000001FF
;PIC18F2550
;CRC=EE0F  CREATED="19-févr.-21 00:31"
